{
  "_format": "hh-sol-artifact-1",
  "contractName": "GovernanceBadgeERC1155",
  "sourceName": "contracts/GovernanceBadgeNFT.sol",
  "abi": [
    {
      "anonymous": false,
      "inputs": [
        {
          "indexed": true,
          "internalType": "address",
          "name": "account",
          "type": "address"
        },
        {
          "indexed": true,
          "internalType": "address",
          "name": "operator",
          "type": "address"
        },
        {
          "indexed": false,
          "internalType": "bool",
          "name": "approved",
          "type": "bool"
        }
      ],
      "name": "ApprovalForAll",
      "type": "event"
    },
    {
      "anonymous": false,
      "inputs": [
        {
          "indexed": false,
          "internalType": "uint8",
          "name": "version",
          "type": "uint8"
        }
      ],
      "name": "Initialized",
      "type": "event"
    },
    {
      "anonymous": false,
      "inputs": [
        {
          "indexed": true,
          "internalType": "address",
          "name": "previousOwner",
          "type": "address"
        },
        {
          "indexed": true,
          "internalType": "address",
          "name": "newOwner",
          "type": "address"
        }
      ],
      "name": "OwnershipTransferred",
      "type": "event"
    },
    {
      "anonymous": false,
      "inputs": [
        {
          "indexed": true,
          "internalType": "address",
          "name": "operator",
          "type": "address"
        },
        {
          "indexed": true,
          "internalType": "address",
          "name": "from",
          "type": "address"
        },
        {
          "indexed": true,
          "internalType": "address",
          "name": "to",
          "type": "address"
        },
        {
          "indexed": false,
          "internalType": "uint256[]",
          "name": "ids",
          "type": "uint256[]"
        },
        {
          "indexed": false,
          "internalType": "uint256[]",
          "name": "values",
          "type": "uint256[]"
        }
      ],
      "name": "TransferBatch",
      "type": "event"
    },
    {
      "anonymous": false,
      "inputs": [
        {
          "indexed": true,
          "internalType": "address",
          "name": "operator",
          "type": "address"
        },
        {
          "indexed": true,
          "internalType": "address",
          "name": "from",
          "type": "address"
        },
        {
          "indexed": true,
          "internalType": "address",
          "name": "to",
          "type": "address"
        },
        {
          "indexed": false,
          "internalType": "uint256",
          "name": "id",
          "type": "uint256"
        },
        {
          "indexed": false,
          "internalType": "uint256",
          "name": "value",
          "type": "uint256"
        }
      ],
      "name": "TransferSingle",
      "type": "event"
    },
    {
      "anonymous": false,
      "inputs": [
        {
          "indexed": false,
          "internalType": "string",
          "name": "value",
          "type": "string"
        },
        {
          "indexed": true,
          "internalType": "uint256",
          "name": "id",
          "type": "uint256"
        }
      ],
      "name": "URI",
      "type": "event"
    },
    {
      "inputs": [],
      "name": "VALIDATOR_NFT",
      "outputs": [
        {
          "internalType": "uint8",
          "name": "",
          "type": "uint8"
        }
      ],
      "stateMutability": "view",
      "type": "function"
    },
    {
      "inputs": [
        {
          "internalType": "address",
          "name": "account",
          "type": "address"
        },
        {
          "internalType": "uint256",
          "name": "id",
          "type": "uint256"
        }
      ],
      "name": "balanceOf",
      "outputs": [
        {
          "internalType": "uint256",
          "name": "",
          "type": "uint256"
        }
      ],
      "stateMutability": "view",
      "type": "function"
    },
    {
      "inputs": [
        {
          "internalType": "address[]",
          "name": "accounts",
          "type": "address[]"
        },
        {
          "internalType": "uint256[]",
          "name": "ids",
          "type": "uint256[]"
        }
      ],
      "name": "balanceOfBatch",
      "outputs": [
        {
          "internalType": "uint256[]",
          "name": "",
          "type": "uint256[]"
        }
      ],
      "stateMutability": "view",
      "type": "function"
    },
    {
      "inputs": [
        {
          "internalType": "string",
          "name": "_name",
          "type": "string"
        },
        {
          "internalType": "string",
          "name": "_symbol",
          "type": "string"
        },
        {
          "internalType": "string",
          "name": "_uri",
          "type": "string"
        }
      ],
      "name": "initialize",
      "outputs": [],
      "stateMutability": "nonpayable",
      "type": "function"
    },
    {
      "inputs": [
        {
          "internalType": "address",
          "name": "account",
          "type": "address"
        },
        {
          "internalType": "address",
          "name": "operator",
          "type": "address"
        }
      ],
      "name": "isApprovedForAll",
      "outputs": [
        {
          "internalType": "bool",
          "name": "",
          "type": "bool"
        }
      ],
      "stateMutability": "view",
      "type": "function"
    },
    {
      "inputs": [
        {
          "internalType": "address",
          "name": "",
          "type": "address"
        },
        {
          "internalType": "address",
          "name": "",
          "type": "address"
        },
        {
          "internalType": "uint256[]",
          "name": "",
          "type": "uint256[]"
        },
        {
          "internalType": "uint256[]",
          "name": "",
          "type": "uint256[]"
        },
        {
          "internalType": "bytes",
          "name": "",
          "type": "bytes"
        }
      ],
      "name": "onERC1155BatchReceived",
      "outputs": [
        {
          "internalType": "bytes4",
          "name": "",
          "type": "bytes4"
        }
      ],
      "stateMutability": "nonpayable",
      "type": "function"
    },
    {
      "inputs": [
        {
          "internalType": "address",
          "name": "",
          "type": "address"
        },
        {
          "internalType": "address",
          "name": "",
          "type": "address"
        },
        {
          "internalType": "uint256",
          "name": "",
          "type": "uint256"
        },
        {
          "internalType": "uint256",
          "name": "",
          "type": "uint256"
        },
        {
          "internalType": "bytes",
          "name": "",
          "type": "bytes"
        }
      ],
      "name": "onERC1155Received",
      "outputs": [
        {
          "internalType": "bytes4",
          "name": "",
          "type": "bytes4"
        }
      ],
      "stateMutability": "nonpayable",
      "type": "function"
    },
    {
      "inputs": [],
      "name": "owner",
      "outputs": [
        {
          "internalType": "address",
          "name": "",
          "type": "address"
        }
      ],
      "stateMutability": "view",
      "type": "function"
    },
    {
      "inputs": [
        {
          "internalType": "address",
          "name": "validator",
          "type": "address"
        }
      ],
      "name": "removeValidator",
      "outputs": [],
      "stateMutability": "nonpayable",
      "type": "function"
    },
    {
      "inputs": [],
      "name": "renounceOwnership",
      "outputs": [],
      "stateMutability": "nonpayable",
      "type": "function"
    },
    {
      "inputs": [],
      "name": "requestValidatorRole",
      "outputs": [
        {
          "internalType": "bool",
          "name": "",
          "type": "bool"
        }
      ],
      "stateMutability": "payable",
      "type": "function"
    },
    {
      "inputs": [],
      "name": "revokeValidationRequest",
      "outputs": [],
      "stateMutability": "nonpayable",
      "type": "function"
    },
    {
      "inputs": [
        {
          "internalType": "address",
          "name": "from",
          "type": "address"
        },
        {
          "internalType": "address",
          "name": "to",
          "type": "address"
        },
        {
          "internalType": "uint256[]",
          "name": "ids",
          "type": "uint256[]"
        },
        {
          "internalType": "uint256[]",
          "name": "amounts",
          "type": "uint256[]"
        },
        {
          "internalType": "bytes",
          "name": "data",
          "type": "bytes"
        }
      ],
      "name": "safeBatchTransferFrom",
      "outputs": [],
      "stateMutability": "nonpayable",
      "type": "function"
    },
    {
      "inputs": [
        {
          "internalType": "address",
          "name": "from",
          "type": "address"
        },
        {
          "internalType": "address",
          "name": "to",
          "type": "address"
        },
        {
          "internalType": "uint256",
          "name": "id",
          "type": "uint256"
        },
        {
          "internalType": "uint256",
          "name": "amount",
          "type": "uint256"
        },
        {
          "internalType": "bytes",
          "name": "data",
          "type": "bytes"
        }
      ],
      "name": "safeTransferFrom",
      "outputs": [],
      "stateMutability": "nonpayable",
      "type": "function"
    },
    {
      "inputs": [
        {
          "internalType": "address",
          "name": "operator",
          "type": "address"
        },
        {
          "internalType": "bool",
          "name": "approved",
          "type": "bool"
        }
      ],
      "name": "setApprovalForAll",
      "outputs": [],
      "stateMutability": "nonpayable",
      "type": "function"
    },
    {
      "inputs": [
        {
          "internalType": "uint256",
          "name": "_stakingAmount",
          "type": "uint256"
        }
      ],
      "name": "setStakingAmount",
      "outputs": [],
      "stateMutability": "nonpayable",
      "type": "function"
    },
    {
      "inputs": [
        {
          "internalType": "address",
          "name": "validator",
          "type": "address"
        }
      ],
      "name": "setValidator",
      "outputs": [],
      "stateMutability": "nonpayable",
      "type": "function"
    },
    {
      "inputs": [],
      "name": "stakingAmount",
      "outputs": [
        {
          "internalType": "uint256",
          "name": "",
          "type": "uint256"
        }
      ],
      "stateMutability": "view",
      "type": "function"
    },
    {
      "inputs": [
        {
          "internalType": "bytes4",
          "name": "interfaceId",
          "type": "bytes4"
        }
      ],
      "name": "supportsInterface",
      "outputs": [
        {
          "internalType": "bool",
          "name": "",
          "type": "bool"
        }
      ],
      "stateMutability": "view",
      "type": "function"
    },
    {
      "inputs": [
        {
          "internalType": "address",
          "name": "newOwner",
          "type": "address"
        }
      ],
      "name": "transferOwnership",
      "outputs": [],
      "stateMutability": "nonpayable",
      "type": "function"
    },
    {
      "inputs": [
        {
          "internalType": "uint256",
          "name": "",
          "type": "uint256"
        }
      ],
      "name": "uri",
      "outputs": [
        {
          "internalType": "string",
          "name": "",
          "type": "string"
        }
      ],
      "stateMutability": "view",
      "type": "function"
    },
    {
      "inputs": [
        {
          "internalType": "address",
          "name": "",
          "type": "address"
        }
      ],
      "name": "validationRequests",
      "outputs": [
        {
          "internalType": "uint256",
          "name": "",
          "type": "uint256"
        }
      ],
      "stateMutability": "view",
      "type": "function"
    }
  ],
  "bytecode": "0x608060405234801561001057600080fd5b5061221c806100206000396000f3fe6080604052600436106101345760003560e01c80638da5cb5b116100ab578063cce661aa1161006f578063cce661aa146103ac578063e985e9c5146103b4578063f23a6e61146103fd578063f242432a14610429578063f2fde38b14610449578063fad511c91461046957600080fd5b80638da5cb5b146102d25780639825524a146102fa578063a22cb46514610327578063a6487c5314610347578063bc197c811461036757600080fd5b80633f230872116100fd5780633f2308721461020b57806340a141ff1461022b5780634e1273f41461024b578063715018a614610278578063716e87c51461028d578063739a3e02146102bb57600080fd5b8062fdd58e1461013957806301ffc9a71461016c5780630e89341c1461019c5780631327d3d8146101c95780632eb2c2d6146101eb575b600080fd5b34801561014557600080fd5b5061015961015436600461186a565b61047e565b6040519081526020015b60405180910390f35b34801561017857600080fd5b5061018c6101873660046118aa565b610516565b6040519015158152602001610163565b3480156101a857600080fd5b506101bc6101b73660046118ce565b610527565b6040516101639190611934565b3480156101d557600080fd5b506101e96101e4366004611947565b6105bb565b005b3480156101f757600080fd5b506101e9610206366004611aae565b6106cb565b34801561021757600080fd5b506101e96102263660046118ce565b610717565b34801561023757600080fd5b506101e9610246366004611947565b610725565b34801561025757600080fd5b5061026b610266366004611b58565b6107a5565b6040516101639190611c5e565b34801561028457600080fd5b506101e96108cf565b34801561029957600080fd5b506101596102a8366004611947565b6101316020526000908152604090205481565b3480156102c757600080fd5b506101596101305481565b3480156102de57600080fd5b506097546040516001600160a01b039091168152602001610163565b34801561030657600080fd5b5061012f546103159060ff1681565b60405160ff9091168152602001610163565b34801561033357600080fd5b506101e9610342366004611c71565b6108e3565b34801561035357600080fd5b506101e9610362366004611cad565b6108ee565b34801561037357600080fd5b50610393610382366004611aae565b63bc197c8160e01b95945050505050565b6040516001600160e01b03199091168152602001610163565b61018c610adf565b3480156103c057600080fd5b5061018c6103cf366004611d63565b6001600160a01b03918216600090815260666020908152604080832093909416825291909152205460ff1690565b34801561040957600080fd5b50610393610418366004611d96565b63f23a6e6160e01b95945050505050565b34801561043557600080fd5b506101e9610444366004611d96565b610c3b565b34801561045557600080fd5b506101e9610464366004611947565b610c80565b34801561047557600080fd5b506101e9610cf9565b60006001600160a01b0383166104ee5760405162461bcd60e51b815260206004820152602a60248201527f455243313135353a2061646472657373207a65726f206973206e6f742061207660448201526930b634b21037bbb732b960b11b60648201526084015b60405180910390fd5b5060009081526065602090815260408083206001600160a01b03949094168352929052205490565b600061052182610d8d565b92915050565b60606067805461053690611dfb565b80601f016020809104026020016040519081016040528092919081815260200182805461056290611dfb565b80156105af5780601f10610584576101008083540402835291602001916105af565b820191906000526020600020905b81548152906001019060200180831161059257829003601f168201915b50505050509050919050565b6105c3610db2565b61012f546000906105d890839060ff1661047e565b9050801561061a5760405162461bcd60e51b815260206004820152600f60248201526e105b1c9958591e481a185cc8139195608a1b60448201526064016104e5565b610130546001600160a01b03831660009081526101316020526040902054146106855760405162461bcd60e51b815260206004820152601d60248201527f4e6f74206578616374207374616b6520666f722076616c696461746f7200000060448201526064016104e5565b6001600160a01b03821660009081526101316020908152604080832083905561012f5481519283019091529181526106c7913091859160ff1690600190610c3b565b5050565b6001600160a01b0385163314806106e757506106e785336103cf565b6107035760405162461bcd60e51b81526004016104e590611e36565b6107108585858585610e0c565b5050505050565b61071f610db2565b61013055565b61072d610db2565b61012f5460009061074290839060ff1661047e565b90508061077f5760405162461bcd60e51b815260206004820152600b60248201526a12185cc81b9bdd0813919560aa1b60448201526064016104e5565b61012f546040805160208101909152600081526106c7918491309160ff16908590610fec565b6060815183511461080a5760405162461bcd60e51b815260206004820152602960248201527f455243313135353a206163636f756e747320616e6420696473206c656e677468604482015268040dad2e6dac2e8c6d60bb1b60648201526084016104e5565b6000835167ffffffffffffffff81111561082657610826611962565b60405190808252806020026020018201604052801561084f578160200160208202803683370190505b50905060005b84518110156108c75761089a85828151811061087357610873611e85565b602002602001015185838151811061088d5761088d611e85565b602002602001015161047e565b8282815181106108ac576108ac611e85565b60209081029190910101526108c081611eb1565b9050610855565b509392505050565b6108d7610db2565b6108e1600061111a565b565b6106c733838361116c565b600054610100900460ff161580801561090e5750600054600160ff909116105b806109285750303b158015610928575060005460ff166001145b61098b5760405162461bcd60e51b815260206004820152602e60248201527f496e697469616c697a61626c653a20636f6e747261637420697320616c72656160448201526d191e481a5b9a5d1a585b1a5e995960921b60648201526084016104e5565b6000805460ff1916600117905580156109ae576000805461ff0019166101001790555b6109ed83838080601f01602080910402602001604051908101604052809392919081815260200183838082843760009201919091525061124d92505050565b6109f561127d565b6109fd6112ac565b8451610a119061012d9060208801906117b5565b508351610a269061012e9060208701906117b5565b5061012f805460ff19169055674563918244f400006101305560408051602081019091526000808252610a6091309190620186a0906112d3565b610a6c3033600161116c565b61012f54604080516020810190915260008152610a93913091339160ff1690600190610c3b565b8015610710576000805461ff0019169055604051600181527f7f26b83ff96e1f2b6a682f133852f6798a09c465da95921460cefb38474024989060200160405180910390a15050505050565b6000610130543414610b335760405162461bcd60e51b815260206004820152601c60248201527f4e656564207265717569726564207374616b696e6720616d6f756e740000000060448201526064016104e5565b336000908152610131602052604090205415610b855760405162461bcd60e51b8152602060048201526011602482015270105b1c9958591e481c995c5d595cdd1959607a1b60448201526064016104e5565b610130546101316000336001600160a01b03166001600160a01b0316815260200190815260200160002081905550610be06040518060400160405280600b81526020016a726571756573743a20257360a81b815250336113e9565b610c356040518060400160405280600d81526020016c7265717565737423323a20257360981b8152506101316000336001600160a01b03166001600160a01b031681526020019081526020016000205461142e565b50600190565b6001600160a01b038516331480610c575750610c5785336103cf565b610c735760405162461bcd60e51b81526004016104e590611e36565b6107108585858585610fec565b610c88610db2565b6001600160a01b038116610ced5760405162461bcd60e51b815260206004820152602660248201527f4f776e61626c653a206e6577206f776e657220697320746865207a65726f206160448201526564647265737360d01b60648201526084016104e5565b610cf68161111a565b50565b3360009081526101316020526040902054610d4b5760405162461bcd60e51b81526020600482015260126024820152711b9bc81c995c5d595cdd081c1c995cd95b9d60721b60448201526064016104e5565b3360008181526101316020526040808220805490839055905190929183156108fc02918491818181858888f193505050501580156106c7573d6000803e3d6000fd5b60006001600160e01b03198216630271189760e51b1480610521575061052182611473565b6097546001600160a01b031633146108e15760405162461bcd60e51b815260206004820181905260248201527f4f776e61626c653a2063616c6c6572206973206e6f7420746865206f776e657260448201526064016104e5565b8151835114610e6e5760405162461bcd60e51b815260206004820152602860248201527f455243313135353a2069647320616e6420616d6f756e7473206c656e677468206044820152670dad2e6dac2e8c6d60c31b60648201526084016104e5565b6001600160a01b038416610e945760405162461bcd60e51b81526004016104e590611ecc565b3360005b8451811015610f7e576000858281518110610eb557610eb5611e85565b602002602001015190506000858381518110610ed357610ed3611e85565b60209081029190910181015160008481526065835260408082206001600160a01b038e168352909352919091205490915081811015610f245760405162461bcd60e51b81526004016104e590611f11565b60008381526065602090815260408083206001600160a01b038e8116855292528083208585039055908b16825281208054849290610f63908490611f5b565b9250508190555050505080610f7790611eb1565b9050610e98565b50846001600160a01b0316866001600160a01b0316826001600160a01b03167f4a39dc06d4c0dbc64b70af90fd698a233a518aa5d07e595d983b8c0526c8f7fb8787604051610fce929190611f73565b60405180910390a4610fe48187878787876114c3565b505050505050565b6001600160a01b0384166110125760405162461bcd60e51b81526004016104e590611ecc565b33600061101e8561161f565b9050600061102b8561161f565b905060008681526065602090815260408083206001600160a01b038c168452909152902054858110156110705760405162461bcd60e51b81526004016104e590611f11565b60008781526065602090815260408083206001600160a01b038d8116855292528083208985039055908a168252812080548892906110af908490611f5b565b909155505060408051888152602081018890526001600160a01b03808b16928c821692918816917fc3d58168c5ae7397731d063d5bbf3d657854427343f4c083240f7aacaa2d0f62910160405180910390a461110f848a8a8a8a8a61166a565b505050505050505050565b609780546001600160a01b038381166001600160a01b0319831681179093556040519116919082907f8be0079c531659141344cd1fd0a4f28419497f9722a3daafe3b4186f6b6457e090600090a35050565b816001600160a01b0316836001600160a01b031614156111e05760405162461bcd60e51b815260206004820152602960248201527f455243313135353a2073657474696e6720617070726f76616c20737461747573604482015268103337b91039b2b63360b91b60648201526084016104e5565b6001600160a01b03838116600081815260666020908152604080832094871680845294825291829020805460ff191686151590811790915591519182527f17307eab39ab6107e8899845ad3d59bd9653f200f220920489ca2b5937696c31910160405180910390a3505050565b600054610100900460ff166112745760405162461bcd60e51b81526004016104e590611fa1565b610cf681611725565b600054610100900460ff166112a45760405162461bcd60e51b81526004016104e590611fa1565b6108e1611755565b600054610100900460ff166108e15760405162461bcd60e51b81526004016104e590611fa1565b6001600160a01b0384166113335760405162461bcd60e51b815260206004820152602160248201527f455243313135353a206d696e7420746f20746865207a65726f206164647265736044820152607360f81b60648201526084016104e5565b33600061133f8561161f565b9050600061134c8561161f565b905060008681526065602090815260408083206001600160a01b038b16845290915281208054879290611380908490611f5b565b909155505060408051878152602081018790526001600160a01b03808a1692600092918716917fc3d58168c5ae7397731d063d5bbf3d657854427343f4c083240f7aacaa2d0f62910160405180910390a46113e08360008989898961166a565b50505050505050565b6106c782826040516024016113ff929190611fec565b60408051601f198184030181529190526020810180516001600160e01b031663319af33360e01b179052611785565b6106c78282604051602401611444929190612016565b60408051601f198184030181529190526020810180516001600160e01b03166309710a9d60e41b179052611785565b60006001600160e01b03198216636cdb3d1360e11b14806114a457506001600160e01b031982166303a24d0760e21b145b8061052157506301ffc9a760e01b6001600160e01b0319831614610521565b6001600160a01b0384163b15610fe45760405163bc197c8160e01b81526001600160a01b0385169063bc197c81906115079089908990889088908890600401612038565b6020604051808303816000875af1925050508015611542575060408051601f3d908101601f1916820190925261153f91810190612096565b60015b6115ef5761154e6120b3565b806308c379a0141561158857506115636120cf565b8061156e575061158a565b8060405162461bcd60e51b81526004016104e59190611934565b505b60405162461bcd60e51b815260206004820152603460248201527f455243313135353a207472616e7366657220746f206e6f6e20455243313135356044820152732932b1b2b4bb32b91034b6b83632b6b2b73a32b960611b60648201526084016104e5565b6001600160e01b0319811663bc197c8160e01b146113e05760405162461bcd60e51b81526004016104e590612159565b6040805160018082528183019092526060916000919060208083019080368337019050509050828160008151811061165957611659611e85565b602090810291909101015292915050565b6001600160a01b0384163b15610fe45760405163f23a6e6160e01b81526001600160a01b0385169063f23a6e61906116ae90899089908890889088906004016121a1565b6020604051808303816000875af19250505080156116e9575060408051601f3d908101601f191682019092526116e691810190612096565b60015b6116f55761154e6120b3565b6001600160e01b0319811663f23a6e6160e01b146113e05760405162461bcd60e51b81526004016104e590612159565b600054610100900460ff1661174c5760405162461bcd60e51b81526004016104e590611fa1565b610cf6816117a6565b600054610100900460ff1661177c5760405162461bcd60e51b81526004016104e590611fa1565b6108e13361111a565b80516a636f6e736f6c652e6c6f67602083016000808483855afa5050505050565b80516106c79060679060208401905b8280546117c190611dfb565b90600052602060002090601f0160209004810192826117e35760008555611829565b82601f106117fc57805160ff1916838001178555611829565b82800160010185558215611829579182015b8281111561182957825182559160200191906001019061180e565b50611835929150611839565b5090565b5b80821115611835576000815560010161183a565b80356001600160a01b038116811461186557600080fd5b919050565b6000806040838503121561187d57600080fd5b6118868361184e565b946020939093013593505050565b6001600160e01b031981168114610cf657600080fd5b6000602082840312156118bc57600080fd5b81356118c781611894565b9392505050565b6000602082840312156118e057600080fd5b5035919050565b6000815180845260005b8181101561190d576020818501810151868301820152016118f1565b8181111561191f576000602083870101525b50601f01601f19169290920160200192915050565b6020815260006118c760208301846118e7565b60006020828403121561195957600080fd5b6118c78261184e565b634e487b7160e01b600052604160045260246000fd5b601f8201601f1916810167ffffffffffffffff8111828210171561199e5761199e611962565b6040525050565b600067ffffffffffffffff8211156119bf576119bf611962565b5060051b60200190565b600082601f8301126119da57600080fd5b813560206119e7826119a5565b6040516119f48282611978565b83815260059390931b8501820192828101915086841115611a1457600080fd5b8286015b84811015611a2f5780358352918301918301611a18565b509695505050505050565b600082601f830112611a4b57600080fd5b813567ffffffffffffffff811115611a6557611a65611962565b604051611a7c601f8301601f191660200182611978565b818152846020838601011115611a9157600080fd5b816020850160208301376000918101602001919091529392505050565b600080600080600060a08688031215611ac657600080fd5b611acf8661184e565b9450611add6020870161184e565b9350604086013567ffffffffffffffff80821115611afa57600080fd5b611b0689838a016119c9565b94506060880135915080821115611b1c57600080fd5b611b2889838a016119c9565b93506080880135915080821115611b3e57600080fd5b50611b4b88828901611a3a565b9150509295509295909350565b60008060408385031215611b6b57600080fd5b823567ffffffffffffffff80821115611b8357600080fd5b818501915085601f830112611b9757600080fd5b81356020611ba4826119a5565b604051611bb18282611978565b83815260059390931b8501820192828101915089841115611bd157600080fd5b948201945b83861015611bf657611be78661184e565b82529482019490820190611bd6565b96505086013592505080821115611c0c57600080fd5b50611c19858286016119c9565b9150509250929050565b600081518084526020808501945080840160005b83811015611c5357815187529582019590820190600101611c37565b509495945050505050565b6020815260006118c76020830184611c23565b60008060408385031215611c8457600080fd5b611c8d8361184e565b915060208301358015158114611ca257600080fd5b809150509250929050565b60008060008060608587031215611cc357600080fd5b843567ffffffffffffffff80821115611cdb57600080fd5b611ce788838901611a3a565b95506020870135915080821115611cfd57600080fd5b611d0988838901611a3a565b94506040870135915080821115611d1f57600080fd5b818701915087601f830112611d3357600080fd5b813581811115611d4257600080fd5b886020828501011115611d5457600080fd5b95989497505060200194505050565b60008060408385031215611d7657600080fd5b611d7f8361184e565b9150611d8d6020840161184e565b90509250929050565b600080600080600060a08688031215611dae57600080fd5b611db78661184e565b9450611dc56020870161184e565b93506040860135925060608601359150608086013567ffffffffffffffff811115611def57600080fd5b611b4b88828901611a3a565b600181811c90821680611e0f57607f821691505b60208210811415611e3057634e487b7160e01b600052602260045260246000fd5b50919050565b6020808252602f908201527f455243313135353a2063616c6c6572206973206e6f7420746f6b656e206f776e60408201526e195c881b9bdc88185c1c1c9bdd9959608a1b606082015260800190565b634e487b7160e01b600052603260045260246000fd5b634e487b7160e01b600052601160045260246000fd5b6000600019821415611ec557611ec5611e9b565b5060010190565b60208082526025908201527f455243313135353a207472616e7366657220746f20746865207a65726f206164604082015264647265737360d81b606082015260800190565b6020808252602a908201527f455243313135353a20696e73756666696369656e742062616c616e636520666f60408201526939103a3930b739b332b960b11b606082015260800190565b60008219821115611f6e57611f6e611e9b565b500190565b604081526000611f866040830185611c23565b8281036020840152611f988185611c23565b95945050505050565b6020808252602b908201527f496e697469616c697a61626c653a20636f6e7472616374206973206e6f74206960408201526a6e697469616c697a696e6760a81b606082015260800190565b604081526000611fff60408301856118e7565b905060018060a01b03831660208301529392505050565b60408152600061202960408301856118e7565b90508260208301529392505050565b6001600160a01b0386811682528516602082015260a06040820181905260009061206490830186611c23565b82810360608401526120768186611c23565b9050828103608084015261208a81856118e7565b98975050505050505050565b6000602082840312156120a857600080fd5b81516118c781611894565b600060033d11156120cc5760046000803e5060005160e01c5b90565b600060443d10156120dd5790565b6040516003193d81016004833e81513d67ffffffffffffffff816024840111818411171561210d57505050505090565b82850191508151818111156121255750505050505090565b843d870101602082850101111561213f5750505050505090565b61214e60208286010187611978565b509095945050505050565b60208082526028908201527f455243313135353a204552433131353552656365697665722072656a656374656040820152676420746f6b656e7360c01b606082015260800190565b6001600160a01b03868116825285166020820152604081018490526060810183905260a0608082018190526000906121db908301846118e7565b97965050505050505056fea26469706673582212208d991bb1842d8b237d48cc0c7d0ade83681bbca410f34f4c83c2c6bb79799f0c64736f6c634300080c0033",
  "linkReferences": {},
  "deployedLinkReferences": {}
}