{
  "_format": "hh-sol-artifact-1",
  "contractName": "ReportDomain",
  "sourceName": "contracts/ReportDomain.sol",
  "abi": [
    {
      "anonymous": false,
      "inputs": [
        {
          "indexed": false,
          "internalType": "uint8",
          "name": "version",
          "type": "uint8"
        }
      ],
      "name": "Initialized",
      "type": "event"
    },
    {
      "anonymous": false,
      "inputs": [
        {
          "indexed": true,
          "internalType": "address",
          "name": "previousOwner",
          "type": "address"
        },
        {
          "indexed": true,
          "internalType": "address",
          "name": "newOwner",
          "type": "address"
        }
      ],
      "name": "OwnershipTransferred",
      "type": "event"
    },
    {
      "inputs": [],
      "name": "getBalance",
      "outputs": [
        {
          "internalType": "uint256",
          "name": "",
          "type": "uint256"
        }
      ],
      "stateMutability": "view",
      "type": "function"
    },
    {
      "inputs": [
        {
          "internalType": "address",
          "name": "_governanceBadgeNFT",
          "type": "address"
        },
        {
          "internalType": "address",
          "name": "_tokenContract",
          "type": "address"
        },
        {
          "internalType": "address",
          "name": "_tablelandRegistry",
          "type": "address"
        }
      ],
      "name": "initialize",
      "outputs": [],
      "stateMutability": "nonpayable",
      "type": "function"
    },
    {
      "inputs": [
        {
          "internalType": "string",
          "name": "domain",
          "type": "string"
        },
        {
          "internalType": "bool",
          "name": "isScam",
          "type": "bool"
        }
      ],
      "name": "isReported",
      "outputs": [
        {
          "internalType": "bool",
          "name": "",
          "type": "bool"
        }
      ],
      "stateMutability": "nonpayable",
      "type": "function"
    },
    {
      "inputs": [],
      "name": "lockedAmount",
      "outputs": [
        {
          "internalType": "uint256",
          "name": "",
          "type": "uint256"
        }
      ],
      "stateMutability": "view",
      "type": "function"
    },
    {
      "inputs": [],
      "name": "metadataTable",
      "outputs": [
        {
          "internalType": "string",
          "name": "",
          "type": "string"
        }
      ],
      "stateMutability": "view",
      "type": "function"
    },
    {
      "inputs": [],
      "name": "owner",
      "outputs": [
        {
          "internalType": "address",
          "name": "",
          "type": "address"
        }
      ],
      "stateMutability": "view",
      "type": "function"
    },
    {
      "inputs": [],
      "name": "renounceOwnership",
      "outputs": [],
      "stateMutability": "nonpayable",
      "type": "function"
    },
    {
      "inputs": [
        {
          "internalType": "string",
          "name": "domain",
          "type": "string"
        },
        {
          "internalType": "bool",
          "name": "isScam",
          "type": "bool"
        },
        {
          "internalType": "string[]",
          "name": "evidenceHashes",
          "type": "string[]"
        },
        {
          "internalType": "string",
          "name": "comments",
          "type": "string"
        }
      ],
      "name": "report",
      "outputs": [
        {
          "internalType": "uint256",
          "name": "",
          "type": "uint256"
        }
      ],
      "stateMutability": "payable",
      "type": "function"
    },
    {
      "inputs": [],
      "name": "reward",
      "outputs": [
        {
          "internalType": "uint256",
          "name": "",
          "type": "uint256"
        }
      ],
      "stateMutability": "view",
      "type": "function"
    },
    {
      "inputs": [
        {
          "internalType": "uint256",
          "name": "_reward",
          "type": "uint256"
        }
      ],
      "name": "setReward",
      "outputs": [],
      "stateMutability": "nonpayable",
      "type": "function"
    },
    {
      "inputs": [
        {
          "internalType": "uint256",
          "name": "_stakingAmount",
          "type": "uint256"
        }
      ],
      "name": "setStakingAmount",
      "outputs": [],
      "stateMutability": "nonpayable",
      "type": "function"
    },
    {
      "inputs": [],
      "name": "stakingAmount",
      "outputs": [
        {
          "internalType": "uint256",
          "name": "",
          "type": "uint256"
        }
      ],
      "stateMutability": "view",
      "type": "function"
    },
    {
      "inputs": [
        {
          "internalType": "address",
          "name": "newOwner",
          "type": "address"
        }
      ],
      "name": "transferOwnership",
      "outputs": [],
      "stateMutability": "nonpayable",
      "type": "function"
    },
    {
      "inputs": [
        {
          "internalType": "uint256",
          "name": "reportId",
          "type": "uint256"
        },
        {
          "internalType": "bool",
          "name": "isAccepted",
          "type": "bool"
        },
        {
          "internalType": "string",
          "name": "comments",
          "type": "string"
        }
      ],
      "name": "validate",
      "outputs": [],
      "stateMutability": "nonpayable",
      "type": "function"
    }
  ],
  "bytecode": "0x608060405234801561001057600080fd5b506120fa806100206000396000f3fe6080604052600436106100dd5760003560e01c8063715018a61161007f5780638da5cb5b116100595780638da5cb5b14610200578063c0c53b8b14610228578063d7268a2e14610248578063f2fde38b1461026a57600080fd5b8063715018a6146101a5578063739a3e02146101ba5780637ade6d63146101d057600080fd5b80633f230872116100bb5780633f2308721461013c57806351fb91321461015c57806365c2a3cc1461016f5780636ab28bc81461018f57600080fd5b806312065fe0146100e2578063228cb73314610104578063293be4561461011a575b600080fd5b3480156100ee57600080fd5b50475b6040519081526020015b60405180910390f35b34801561011057600080fd5b506100f1606f5481565b34801561012657600080fd5b5061013a61013536600461160b565b61028a565b005b34801561014857600080fd5b5061013a61015736600461160b565b610297565b6100f161016a366004611682565b6102a4565b34801561017b57600080fd5b5061013a61018a366004611761565b6106e4565b34801561019b57600080fd5b506100f160705481565b3480156101b157600080fd5b5061013a610c72565b3480156101c657600080fd5b506100f1606e5481565b3480156101dc57600080fd5b506101f06101eb3660046117bb565b610c86565b60405190151581526020016100fb565b34801561020c57600080fd5b506033546040516001600160a01b0390911681526020016100fb565b34801561023457600080fd5b5061013a610243366004611826565b610cef565b34801561025457600080fd5b5061025d611001565b6040516100fb91906118b8565b34801561027657600080fd5b5061013a6102853660046118cb565b61108f565b610292611108565b606f55565b61029f611108565b606e55565b6000851561032857607188886040516102be9291906118f5565b9081526040519081900360200190205460ff16156103235760405162461bcd60e51b815260206004820152601c60248201527f4973205363616d207265706f727420616c72656164792066696c65640000000060448201526064015b60405180910390fd5b6103a0565b6071888860405161033a9291906118f5565b9081526040519081900360200190205460ff61010090910416156103a05760405162461bcd60e51b815260206004820152601d60248201527f4973204c65676974207265706f727420616c72656164792066696c6564000000604482015260640161031a565b606e5434146103f15760405162461bcd60e51b815260206004820152601b60248201527f496e636f7272656374207374616b6520616d6f756e742073656e740000000000604482015260640161031a565b606e5460706000828254610405919061191b565b909155505060408051602081019091526000815284806104675760405162461bcd60e51b815260206004820152601c60248201527f526571756972652061746c65617374206f6e652065766964656e636500000000604482015260640161031a565b60005b81811015610500578288888381811061048557610485611933565b90506020028101906104979190611949565b6040516020016104a9939291906119ac565b60408051601f1981840301815291905292506104c66001836119d4565b8110156104f057826040516020016104de91906119eb565b60405160208183030381529060405292505b6104f981611a10565b905061046a565b5060008861050f576000610512565b60015b60ff16905060004290506000606861052b606b54611162565b8e8e610538606e54611162565b61054188611162565b8a8e8e61054f336014611268565b6105588c611162565b6105618d611162565b60405160200161057c9c9b9a99989796959493929190611b00565b604051602081830303815290604052905061059681611404565b60675460695460405163757ae82760e11b81526001600160a01b039092169163eaf5d04e916105cc913091908690600401611cc9565b600060405180830381600087803b1580156105e657600080fd5b505af11580156105fa573d6000803e3d6000fd5b505050508a1561063d57600160718e8e6040516106189291906118f5565b908152604051908190036020019020805491151560ff19909216919091179055610677565b600160718e8e6040516106519291906118f5565b90815260405190819003602001902080549115156101000261ff00199092169190911790555b606b8054600090815260726020526040812080546001600160a81b0319163317600160a01b178155606e5460018083019190915560028201805460ff1916821790558354919391929091906106cc838561191b565b90915550909f9e505050505050505050505050505050565b606c5460408051634c12a92560e11b815290516001600160a01b0390921691600091839162fdd58e9133918491639825524a9160048083019260209291908290030181865afa15801561073b573d6000803e3d6000fd5b505050506040513d601f19601f8201168201806040525081019061075f9190611cf9565b6040516001600160e01b031960e085901b1681526001600160a01b03909216600483015260ff166024820152604401602060405180830381865afa1580156107ab573d6000803e3d6000fd5b505050506040513d601f19601f820116820180604052508101906107cf9190611d1c565b90506000811161082d5760405162461bcd60e51b815260206004820152602360248201527f4f6e6c7920676f7665726e616e6365206d656d6265722063616e2076616c696460448201526261746560e81b606482015260840161031a565b600086815260726020526040902054600160a01b900460ff166108865760405162461bcd60e51b815260206004820152601160248201527010d85cd948191bd95cdb9d08195e1a5cdd607a1b604482015260640161031a565b60008681526072602052604090206002015460ff166108e05760405162461bcd60e51b815260206004820152601660248201527510d85cd948185b1c9958591e481d985b1a59185d195960521b604482015260640161031a565b6000606580546108ef90611a2b565b80601f016020809104026020016040519081016040528092919081815260200182805461091b90611a2b565b80156109685780601f1061093d57610100808354040283529160200191610968565b820191906000526020600020905b81548152906001019060200180831161094b57829003601f168201915b5050505050905085610a02576066805461098190611a2b565b80601f01602080910402602001604051908101604052809291908181526020018280546109ad90611a2b565b80156109fa5780601f106109cf576101008083540402835291602001916109fa565b820191906000526020600020905b8154815290600101906020018083116109dd57829003601f168201915b505050505090505b4260006068838888610a15336014611268565b610a1e87611162565b610a278f611162565b604051602001610a3d9796959493929190611d35565b6040516020818303038152906040529050610a5781611404565b60675460695460405163757ae82760e11b81526001600160a01b039092169163eaf5d04e91610a8d913091908690600401611cc9565b600060405180830381600087803b158015610aa757600080fd5b505af1158015610abb573d6000803e3d6000fd5b50505060008a8152607260205260409020600201805460ff191690555060658054610b6e918591610aeb90611a2b565b80601f0160208091040260200160405190810160405280929190818152602001828054610b1790611a2b565b8015610b645780601f10610b3957610100808354040283529160200191610b64565b820191906000526020600020905b815481529060010190602001808311610b4757829003601f168201915b5050505050611447565b15610c3d57600089815260726020526040808220805460019091015491516001600160a01b039091169282156108fc02929190818181858888f19350505050158015610bbe573d6000803e3d6000fd5b50606d5460008a8152607260205260409081902054606f5491516340c10f1960e01b81526001600160a01b03918216600482015260248101929092529091169081906340c10f1990604401600060405180830381600087803b158015610c2357600080fd5b505af1158015610c37573d6000803e3d6000fd5b50505050505b6000898152607260205260408120600101546070805491929091610c629084906119d4565b9091555050505050505050505050565b610c7a611108565b610c8460006114a0565b565b60008115610cba5760718484604051610ca09291906118f5565b9081526040519081900360200190205460ff169050610ce8565b60718484604051610ccc9291906118f5565b9081526040519081900360200190205460ff6101009091041690505b9392505050565b600054610100900460ff1615808015610d0f5750600054600160ff909116105b80610d295750303b158015610d29575060005460ff166001145b610d8c5760405162461bcd60e51b815260206004820152602e60248201527f496e697469616c697a61626c653a20636f6e747261637420697320616c72656160448201526d191e481a5b9a5d1a585b1a5e995960921b606482015260840161031a565b6000805460ff191660011790558015610daf576000805461ff0019166101001790555b610db76114f2565b606c80546001600160a01b038087166001600160a01b031992831617909255606d8054868416908316179055606780549285169290911691909117905560408051808201909152600d8082526c646f6d61696e7265706f72747360981b6020909201918252610e2891606a91611572565b506000606b55678ac7230489e80000606f556706f05b59d3b20000606e55604080518082019091526008808252671050d0d15415115160c21b6020909201918252610e7591606591611572565b50604080518082019091526008808252671491529150d5115160c21b6020909201918252610ea591606691611572565b50600060405180610100016040528060c3815260200161200260c391396067549091506001600160a01b0316633a9151b030606a610ee246611162565b85604051602001610ef593929190611e3e565b6040516020818303038152906040526040518363ffffffff1660e01b8152600401610f21929190611e9d565b6020604051808303816000875af1158015610f40573d6000803e3d6000fd5b505050506040513d601f19601f82011682018060405250810190610f649190611d1c565b606955606a610f7246611162565b610f7d606954611162565b604051602001610f8f93929190611ec1565b60405160208183030381529060405260689080519060200190610fb3929190611572565b50508015610ffb576000805461ff0019169055604051600181527f7f26b83ff96e1f2b6a682f133852f6798a09c465da95921460cefb38474024989060200160405180910390a15b50505050565b6068805461100e90611a2b565b80601f016020809104026020016040519081016040528092919081815260200182805461103a90611a2b565b80156110875780601f1061105c57610100808354040283529160200191611087565b820191906000526020600020905b81548152906001019060200180831161106a57829003601f168201915b505050505081565b611097611108565b6001600160a01b0381166110fc5760405162461bcd60e51b815260206004820152602660248201527f4f776e61626c653a206e6577206f776e657220697320746865207a65726f206160448201526564647265737360d01b606482015260840161031a565b611105816114a0565b50565b6033546001600160a01b03163314610c845760405162461bcd60e51b815260206004820181905260248201527f4f776e61626c653a2063616c6c6572206973206e6f7420746865206f776e6572604482015260640161031a565b6060816111865750506040805180820190915260018152600360fc1b602082015290565b8160005b81156111b0578061119a81611a10565b91506111a99050600a83611f26565b915061118a565b60008167ffffffffffffffff8111156111cb576111cb611f3a565b6040519080825280601f01601f1916602001820160405280156111f5576020820181803683370190505b5090505b84156112605761120a6001836119d4565b9150611217600a86611f50565b61122290603061191b565b60f81b81838151811061123757611237611933565b60200101906001600160f81b031916908160001a905350611259600a86611f26565b94506111f9565b949350505050565b60606000611277836002611f64565b61128290600261191b565b67ffffffffffffffff81111561129a5761129a611f3a565b6040519080825280601f01601f1916602001820160405280156112c4576020820181803683370190505b509050600360fc1b816000815181106112df576112df611933565b60200101906001600160f81b031916908160001a905350600f60fb1b8160018151811061130e5761130e611933565b60200101906001600160f81b031916908160001a9053506000611332846002611f64565b61133d90600161191b565b90505b60018111156113b5576f181899199a1a9b1b9c1cb0b131b232b360811b85600f166010811061137157611371611933565b1a60f81b82828151811061138757611387611933565b60200101906001600160f81b031916908160001a90535060049490941c936113ae81611f83565b9050611340565b508315610ce85760405162461bcd60e51b815260206004820181905260248201527f537472696e67733a20686578206c656e67746820696e73756666696369656e74604482015260640161031a565b6111058160405160240161141891906118b8565b60408051601f198184030181529190526020810180516001600160e01b031663104c13eb60e21b179052611521565b60008160405160200161145a9190611f9a565b60405160208183030381529060405280519060200120836040516020016114819190611f9a565b6040516020818303038152906040528051906020012014905092915050565b603380546001600160a01b038381166001600160a01b0319831681179093556040519116919082907f8be0079c531659141344cd1fd0a4f28419497f9722a3daafe3b4186f6b6457e090600090a35050565b600054610100900460ff166115195760405162461bcd60e51b815260040161031a90611fb6565b610c84611542565b80516a636f6e736f6c652e6c6f67602083016000808483855afa5050505050565b600054610100900460ff166115695760405162461bcd60e51b815260040161031a90611fb6565b610c84336114a0565b82805461157e90611a2b565b90600052602060002090601f0160209004810192826115a057600085556115e6565b82601f106115b957805160ff19168380011785556115e6565b828001600101855582156115e6579182015b828111156115e65782518255916020019190600101906115cb565b506115f29291506115f6565b5090565b5b808211156115f257600081556001016115f7565b60006020828403121561161d57600080fd5b5035919050565b60008083601f84011261163657600080fd5b50813567ffffffffffffffff81111561164e57600080fd5b60208301915083602082850101111561166657600080fd5b9250929050565b8035801515811461167d57600080fd5b919050565b60008060008060008060006080888a03121561169d57600080fd5b873567ffffffffffffffff808211156116b557600080fd5b6116c18b838c01611624565b90995097508791506116d560208b0161166d565b965060408a01359150808211156116eb57600080fd5b818a0191508a601f8301126116ff57600080fd5b81358181111561170e57600080fd5b8b60208260051b850101111561172357600080fd5b6020830196508095505060608a013591508082111561174157600080fd5b5061174e8a828b01611624565b989b979a50959850939692959293505050565b6000806000806060858703121561177757600080fd5b843593506117876020860161166d565b9250604085013567ffffffffffffffff8111156117a357600080fd5b6117af87828801611624565b95989497509550505050565b6000806000604084860312156117d057600080fd5b833567ffffffffffffffff8111156117e757600080fd5b6117f386828701611624565b909450925061180690506020850161166d565b90509250925092565b80356001600160a01b038116811461167d57600080fd5b60008060006060848603121561183b57600080fd5b6118448461180f565b92506118526020850161180f565b91506118066040850161180f565b60005b8381101561187b578181015183820152602001611863565b83811115610ffb5750506000910152565b600081518084526118a4816020860160208601611860565b601f01601f19169290920160200192915050565b602081526000610ce8602083018461188c565b6000602082840312156118dd57600080fd5b610ce88261180f565b81818437506000910190815290565b8183823760009101908152919050565b634e487b7160e01b600052601160045260246000fd5b6000821982111561192e5761192e611905565b500190565b634e487b7160e01b600052603260045260246000fd5b6000808335601e1984360301811261196057600080fd5b83018035915067ffffffffffffffff82111561197b57600080fd5b60200191503681900382131561166657600080fd5b600081516119a2818560208601611860565b9290920192915050565b600084516119be818460208901611860565b8201838582376000930192835250909392505050565b6000828210156119e6576119e6611905565b500390565b600082516119fd818460208701611860565b600b60fa1b920191825250600101919050565b6000600019821415611a2457611a24611905565b5060010190565b600181811c90821680611a3f57607f821691505b60208210811415611a6057634e487b7160e01b600052602260045260246000fd5b50919050565b8054600090600181811c9080831680611a8057607f831692505b6020808410821415611aa257634e487b7160e01b600052602260045260246000fd5b818015611ab65760018114611ac757611af4565b60ff19861689528489019650611af4565b60008881526020902060005b86811015611aec5781548b820152908501908301611ad3565b505084890196505b50505050505092915050565b6b024a729a2a92a1024a72a27960a51b81526000611b21600c83018f611a66565b7f202869642c20646f6d61696e2c207374616b652c2069735363616d2c2065766981527f64656e6365732c20636f6d6d656e74732c207374617475732c206163636f756e60208201527f742c2076616c696461746f722c2076616c696461746f72436f6d6d656e74732c60408201527f20637265617465646f6e2c20757064617465646f6e292056414c5545532028006060820152611bc3607f82018f611990565b622c202760e81b81529050611bdc600382018d8f6118e6565b622c202760e81b81529050611bf4600382018c611990565b6201396160ed1b81529050611c0c600382018b611990565b622c202760e81b81529050611c24600382018a611990565b63272c202760e01b81529050611c3e60048201888a6118e6565b68272c20274f50454e2760b81b81529050622c202760e81b6009820152611c68600c820187611990565b67272c2027272c202760c01b8152905063272c202760e01b6008820152611c92600c820186611990565b63272c202760e01b81529050611cab6004820185611990565b61272960f01b81526002019f9e505050505050505050505050505050565b60018060a01b0384168152826020820152606060408201526000611cf0606083018461188c565b95945050505050565b600060208284031215611d0b57600080fd5b815160ff81168114610ce857600080fd5b600060208284031215611d2e57600080fd5b5051919050565b6602aa82220aa22960cd1b81526000611d51600783018a611a66565b6401029a2aa160dd1b8152677374617475733d2760c01b60058201528851611d8081600d840160208d01611860565b75272c2076616c696461746f72436f6d6d656e74733d2760501b600d9290910191820152868860238301376d272c2076616c696461746f723d2760901b6023918801918201528551611dd9816031840160208a01611860565b6d272c20757064617465646f6e3d2760901b603192909101918201528451611e0881603f840160208901611860565b01611e23603f82016a272057484552452069643d60a81b9052565b611e30604a820185611990565b9a9950505050505050505050565b6c021a922a0aa22902a20a126229609d1b81526000611e60600d830186611a66565b605f60f81b81528451611e7a816001840160208901611860565b8451910190611e90816001840160208801611860565b0160010195945050505050565b6001600160a01b03831681526040602082018190526000906112609083018461188c565b6000611ecd8286611a66565b605f60f81b8082528551611ee8816001850160208a01611860565b60019201918201528351611f03816002840160208801611860565b0160020195945050505050565b634e487b7160e01b600052601260045260246000fd5b600082611f3557611f35611f10565b500490565b634e487b7160e01b600052604160045260246000fd5b600082611f5f57611f5f611f10565b500690565b6000816000190483118215151615611f7e57611f7e611905565b500290565b600081611f9257611f92611905565b506000190190565b60008251611fac818460208701611860565b9190910192915050565b6020808252602b908201527f496e697469616c697a61626c653a20636f6e7472616374206973206e6f74206960408201526a6e697469616c697a696e6760a81b60608201526080019056fe2028696420696e742c20646f6d61696e20746578742c207374616b6520746578742c2069735363616d20696e742c2065766964656e63657320746578742c20636f6d6d656e747320746578742c2073746174757320746578742c206163636f756e7420746578742c2076616c696461746f7220746578742c2076616c696461746f72436f6d6d656e747320746578742c20637265617465646f6e20746578742c20757064617465646f6e20746578742c207072696d617279206b65792028696429293ba26469706673582212205b8969619e2292a72ec53ae4054335e7e8248b586615056d3bf0f9e61888650264736f6c634300080c0033",
  "linkReferences": {},
  "deployedLinkReferences": {}
}