{
  "_format": "hh-sol-artifact-1",
  "contractName": "ReportDomain",
  "sourceName": "contracts/ReportDomain.sol",
  "abi": [
    {
      "anonymous": false,
      "inputs": [
        {
          "indexed": false,
          "internalType": "uint8",
          "name": "version",
          "type": "uint8"
        }
      ],
      "name": "Initialized",
      "type": "event"
    },
    {
      "anonymous": false,
      "inputs": [
        {
          "indexed": true,
          "internalType": "address",
          "name": "previousOwner",
          "type": "address"
        },
        {
          "indexed": true,
          "internalType": "address",
          "name": "newOwner",
          "type": "address"
        }
      ],
      "name": "OwnershipTransferred",
      "type": "event"
    },
    {
      "inputs": [
        {
          "internalType": "address",
          "name": "_governanceBadgeNFT",
          "type": "address"
        },
        {
          "internalType": "address",
          "name": "_tokenContract",
          "type": "address"
        },
        {
          "internalType": "address",
          "name": "_tablelandRegistry",
          "type": "address"
        }
      ],
      "name": "initialize",
      "outputs": [],
      "stateMutability": "nonpayable",
      "type": "function"
    },
    {
      "inputs": [
        {
          "internalType": "string",
          "name": "domain",
          "type": "string"
        },
        {
          "internalType": "bool",
          "name": "isScam",
          "type": "bool"
        }
      ],
      "name": "isReported",
      "outputs": [
        {
          "internalType": "bool",
          "name": "",
          "type": "bool"
        }
      ],
      "stateMutability": "nonpayable",
      "type": "function"
    },
    {
      "inputs": [],
      "name": "lockedAmount",
      "outputs": [
        {
          "internalType": "uint256",
          "name": "",
          "type": "uint256"
        }
      ],
      "stateMutability": "view",
      "type": "function"
    },
    {
      "inputs": [],
      "name": "metadataTable",
      "outputs": [
        {
          "internalType": "string",
          "name": "",
          "type": "string"
        }
      ],
      "stateMutability": "view",
      "type": "function"
    },
    {
      "inputs": [],
      "name": "owner",
      "outputs": [
        {
          "internalType": "address",
          "name": "",
          "type": "address"
        }
      ],
      "stateMutability": "view",
      "type": "function"
    },
    {
      "inputs": [],
      "name": "renounceOwnership",
      "outputs": [],
      "stateMutability": "nonpayable",
      "type": "function"
    },
    {
      "inputs": [
        {
          "internalType": "string",
          "name": "domain",
          "type": "string"
        },
        {
          "internalType": "bool",
          "name": "isScam",
          "type": "bool"
        },
        {
          "internalType": "string[]",
          "name": "evidenceHashes",
          "type": "string[]"
        },
        {
          "internalType": "string",
          "name": "comments",
          "type": "string"
        }
      ],
      "name": "report",
      "outputs": [
        {
          "internalType": "uint256",
          "name": "",
          "type": "uint256"
        }
      ],
      "stateMutability": "payable",
      "type": "function"
    },
    {
      "inputs": [],
      "name": "reward",
      "outputs": [
        {
          "internalType": "uint256",
          "name": "",
          "type": "uint256"
        }
      ],
      "stateMutability": "view",
      "type": "function"
    },
    {
      "inputs": [
        {
          "internalType": "uint256",
          "name": "_reward",
          "type": "uint256"
        }
      ],
      "name": "setReward",
      "outputs": [],
      "stateMutability": "nonpayable",
      "type": "function"
    },
    {
      "inputs": [
        {
          "internalType": "uint256",
          "name": "_stakingAmount",
          "type": "uint256"
        }
      ],
      "name": "setStakingAmount",
      "outputs": [],
      "stateMutability": "nonpayable",
      "type": "function"
    },
    {
      "inputs": [],
      "name": "stakingAmount",
      "outputs": [
        {
          "internalType": "uint256",
          "name": "",
          "type": "uint256"
        }
      ],
      "stateMutability": "view",
      "type": "function"
    },
    {
      "inputs": [
        {
          "internalType": "address",
          "name": "newOwner",
          "type": "address"
        }
      ],
      "name": "transferOwnership",
      "outputs": [],
      "stateMutability": "nonpayable",
      "type": "function"
    },
    {
      "inputs": [
        {
          "internalType": "uint256",
          "name": "reportId",
          "type": "uint256"
        },
        {
          "internalType": "bool",
          "name": "isScam",
          "type": "bool"
        },
        {
          "internalType": "string",
          "name": "comments",
          "type": "string"
        }
      ],
      "name": "validate",
      "outputs": [],
      "stateMutability": "nonpayable",
      "type": "function"
    }
  ],
  "bytecode": "0x608060405234801561001057600080fd5b506119da806100206000396000f3fe6080604052600436106100c25760003560e01c8063715018a61161007f5780638da5cb5b116100595780638da5cb5b146101d6578063c0c53b8b146101fe578063d7268a2e1461021e578063f2fde38b1461024057600080fd5b8063715018a61461017b578063739a3e02146101905780637ade6d63146101a657600080fd5b8063228cb733146100c7578063293be456146100f05780633f2308721461011257806351fb91321461013257806365c2a3cc146101455780636ab28bc814610165575b600080fd5b3480156100d357600080fd5b506100dd606d5481565b6040519081526020015b60405180910390f35b3480156100fc57600080fd5b5061011061010b366004611094565b610260565b005b34801561011e57600080fd5b5061011061012d366004611094565b61026d565b6100dd61014036600461110b565b61027a565b34801561015157600080fd5b506101106101603660046111ea565b61066c565b34801561017157600080fd5b506100dd606e5481565b34801561018757600080fd5b506101106107bd565b34801561019c57600080fd5b506100dd606c5481565b3480156101b257600080fd5b506101c66101c1366004611244565b6107d1565b60405190151581526020016100e7565b3480156101e257600080fd5b506033546040516001600160a01b0390911681526020016100e7565b34801561020a57600080fd5b506101106102193660046112af565b61083a565b34801561022a57600080fd5b50610233610ae3565b6040516100e79190611341565b34801561024c57600080fd5b5061011061025b366004611354565b610b71565b610268610bea565b606d55565b610275610bea565b606c55565b600085156102fe57606f888860405161029492919061137e565b9081526040519081900360200190205460ff16156102f95760405162461bcd60e51b815260206004820152601c60248201527f4973205363616d207265706f727420616c72656164792066696c65640000000060448201526064015b60405180910390fd5b610376565b606f888860405161031092919061137e565b9081526040519081900360200190205460ff61010090910416156103765760405162461bcd60e51b815260206004820152601d60248201527f4973204c65676974207265706f727420616c72656164792066696c656400000060448201526064016102f0565b606c5434146103c75760405162461bcd60e51b815260206004820152601b60248201527f496e636f7272656374207374616b6520616d6f756e742073656e74000000000060448201526064016102f0565b606c54606e60008282546103db91906113a4565b9091555050604080516020810190915260008152848061043d5760405162461bcd60e51b815260206004820152601c60248201527f526571756972652061746c65617374206f6e652065766964656e63650000000060448201526064016102f0565b60005b818110156104d6578288888381811061045b5761045b6113bc565b905060200281019061046d91906113d2565b60405160200161047f93929190611435565b60408051601f19818403018152919052925061049c60018361145d565b8110156104c657826040516020016104b49190611474565b60405160208183030381529060405292505b6104cf81611499565b9050610440565b506000886104e55760006104e8565b60015b60ff169050600042905060006066610501606954610c44565b8e8e61050c87610c44565b898d8d61051a336014610d4a565b6105238b610c44565b61052c8c610c44565b6040516020016105469b9a99989796959493929190611589565b604051602081830303815290604052905061056081610ee6565b60655460675460405163757ae82760e11b81526001600160a01b039092169163eaf5d04e91610596913091908690600401611702565b600060405180830381600087803b1580156105b057600080fd5b505af11580156105c4573d6000803e3d6000fd5b505050508a15610607576001606f8e8e6040516105e292919061137e565b908152604051908190036020019020805491151560ff19909216919091179055610641565b6001606f8e8e60405161061b92919061137e565b90815260405190819003602001902080549115156101000261ff00199092169190911790555b6069805490600190600061065583856113a4565b90915550909e9d5050505050505050505050505050565b606a5460408051634c12a92560e11b815290516001600160a01b0390921691600091839162fdd58e9133918491639825524a9160048083019260209291908290030181865afa1580156106c3573d6000803e3d6000fd5b505050506040513d601f19601f820116820180604052508101906106e79190611732565b6040516001600160e01b031960e085901b1681526001600160a01b03909216600483015260ff166024820152604401602060405180830381865afa158015610733573d6000803e3d6000fd5b505050506040513d601f19601f820116820180604052508101906107579190611755565b9050600081116107b55760405162461bcd60e51b815260206004820152602360248201527f4f6e6c7920676f7665726e616e6365206d656d6265722063616e2076616c696460448201526261746560e81b60648201526084016102f0565b505050505050565b6107c5610bea565b6107cf6000610f29565b565b6000811561080557606f84846040516107eb92919061137e565b9081526040519081900360200190205460ff169050610833565b606f848460405161081792919061137e565b9081526040519081900360200190205460ff6101009091041690505b9392505050565b600054610100900460ff161580801561085a5750600054600160ff909116105b806108745750303b158015610874575060005460ff166001145b6108d75760405162461bcd60e51b815260206004820152602e60248201527f496e697469616c697a61626c653a20636f6e747261637420697320616c72656160448201526d191e481a5b9a5d1a585b1a5e995960921b60648201526084016102f0565b6000805460ff1916600117905580156108fa576000805461ff0019166101001790555b610902610f7b565b606a80546001600160a01b038087166001600160a01b031992831617909255606b8054868416908316179055606580549285169290911691909117905560408051808201909152600d8082526c646f6d61696e7265706f72747360981b602090920191825261097391606891610ffb565b5060006069819055600a606d55674563918244f40000606c556040805160c08101909152608f80825261191660208301396065549091506001600160a01b0316633a9151b03060686109c446610c44565b856040516020016109d79392919061176e565b6040516020818303038152906040526040518363ffffffff1660e01b8152600401610a039291906117cd565b6020604051808303816000875af1158015610a22573d6000803e3d6000fd5b505050506040513d601f19601f82011682018060405250810190610a469190611755565b6067556068610a5446610c44565b610a5f606754610c44565b604051602001610a71939291906117f1565b60405160208183030381529060405260669080519060200190610a95929190610ffb565b50508015610add576000805461ff0019169055604051600181527f7f26b83ff96e1f2b6a682f133852f6798a09c465da95921460cefb38474024989060200160405180910390a15b50505050565b60668054610af0906114b4565b80601f0160208091040260200160405190810160405280929190818152602001828054610b1c906114b4565b8015610b695780601f10610b3e57610100808354040283529160200191610b69565b820191906000526020600020905b815481529060010190602001808311610b4c57829003601f168201915b505050505081565b610b79610bea565b6001600160a01b038116610bde5760405162461bcd60e51b815260206004820152602660248201527f4f776e61626c653a206e6577206f776e657220697320746865207a65726f206160448201526564647265737360d01b60648201526084016102f0565b610be781610f29565b50565b6033546001600160a01b031633146107cf5760405162461bcd60e51b815260206004820181905260248201527f4f776e61626c653a2063616c6c6572206973206e6f7420746865206f776e657260448201526064016102f0565b606081610c685750506040805180820190915260018152600360fc1b602082015290565b8160005b8115610c925780610c7c81611499565b9150610c8b9050600a83611856565b9150610c6c565b60008167ffffffffffffffff811115610cad57610cad61186a565b6040519080825280601f01601f191660200182016040528015610cd7576020820181803683370190505b5090505b8415610d4257610cec60018361145d565b9150610cf9600a86611880565b610d049060306113a4565b60f81b818381518110610d1957610d196113bc565b60200101906001600160f81b031916908160001a905350610d3b600a86611856565b9450610cdb565b949350505050565b60606000610d59836002611894565b610d649060026113a4565b67ffffffffffffffff811115610d7c57610d7c61186a565b6040519080825280601f01601f191660200182016040528015610da6576020820181803683370190505b509050600360fc1b81600081518110610dc157610dc16113bc565b60200101906001600160f81b031916908160001a905350600f60fb1b81600181518110610df057610df06113bc565b60200101906001600160f81b031916908160001a9053506000610e14846002611894565b610e1f9060016113a4565b90505b6001811115610e97576f181899199a1a9b1b9c1cb0b131b232b360811b85600f1660108110610e5357610e536113bc565b1a60f81b828281518110610e6957610e696113bc565b60200101906001600160f81b031916908160001a90535060049490941c93610e90816118b3565b9050610e22565b5083156108335760405162461bcd60e51b815260206004820181905260248201527f537472696e67733a20686578206c656e67746820696e73756666696369656e7460448201526064016102f0565b610be781604051602401610efa9190611341565b60408051601f198184030181529190526020810180516001600160e01b031663104c13eb60e21b179052610faa565b603380546001600160a01b038381166001600160a01b0319831681179093556040519116919082907f8be0079c531659141344cd1fd0a4f28419497f9722a3daafe3b4186f6b6457e090600090a35050565b600054610100900460ff16610fa25760405162461bcd60e51b81526004016102f0906118ca565b6107cf610fcb565b80516a636f6e736f6c652e6c6f67602083016000808483855afa5050505050565b600054610100900460ff16610ff25760405162461bcd60e51b81526004016102f0906118ca565b6107cf33610f29565b828054611007906114b4565b90600052602060002090601f016020900481019282611029576000855561106f565b82601f1061104257805160ff191683800117855561106f565b8280016001018555821561106f579182015b8281111561106f578251825591602001919060010190611054565b5061107b92915061107f565b5090565b5b8082111561107b5760008155600101611080565b6000602082840312156110a657600080fd5b5035919050565b60008083601f8401126110bf57600080fd5b50813567ffffffffffffffff8111156110d757600080fd5b6020830191508360208285010111156110ef57600080fd5b9250929050565b8035801515811461110657600080fd5b919050565b60008060008060008060006080888a03121561112657600080fd5b873567ffffffffffffffff8082111561113e57600080fd5b61114a8b838c016110ad565b909950975087915061115e60208b016110f6565b965060408a013591508082111561117457600080fd5b818a0191508a601f83011261118857600080fd5b81358181111561119757600080fd5b8b60208260051b85010111156111ac57600080fd5b6020830196508095505060608a01359150808211156111ca57600080fd5b506111d78a828b016110ad565b989b979a50959850939692959293505050565b6000806000806060858703121561120057600080fd5b84359350611210602086016110f6565b9250604085013567ffffffffffffffff81111561122c57600080fd5b611238878288016110ad565b95989497509550505050565b60008060006040848603121561125957600080fd5b833567ffffffffffffffff81111561127057600080fd5b61127c868287016110ad565b909450925061128f9050602085016110f6565b90509250925092565b80356001600160a01b038116811461110657600080fd5b6000806000606084860312156112c457600080fd5b6112cd84611298565b92506112db60208501611298565b915061128f60408501611298565b60005b838110156113045781810151838201526020016112ec565b83811115610add5750506000910152565b6000815180845261132d8160208601602086016112e9565b601f01601f19169290920160200192915050565b6020815260006108336020830184611315565b60006020828403121561136657600080fd5b61083382611298565b81818437506000910190815290565b8183823760009101908152919050565b634e487b7160e01b600052601160045260246000fd5b600082198211156113b7576113b761138e565b500190565b634e487b7160e01b600052603260045260246000fd5b6000808335601e198436030181126113e957600080fd5b83018035915067ffffffffffffffff82111561140457600080fd5b6020019150368190038213156110ef57600080fd5b6000815161142b8185602086016112e9565b9290920192915050565b600084516114478184602089016112e9565b8201838582376000930192835250909392505050565b60008282101561146f5761146f61138e565b500390565b600082516114868184602087016112e9565b600b60fa1b920191825250600101919050565b60006000198214156114ad576114ad61138e565b5060010190565b600181811c908216806114c857607f821691505b602082108114156114e957634e487b7160e01b600052602260045260246000fd5b50919050565b8054600090600181811c908083168061150957607f831692505b602080841082141561152b57634e487b7160e01b600052602260045260246000fd5b81801561153f57600181146115505761157d565b60ff1986168952848901965061157d565b60008881526020902060005b868110156115755781548b82015290850190830161155c565b505084890196505b50505050505092915050565b6b024a729a2a92a1024a72a27960a51b815260006115aa600c83018e6114ef565b7f202869642c20646f6d61696e2c2069735363616d2c2065766964656e6365732c81527f20636f6d6d656e74732c207374617475732c206163636f756e742c206372656160208201527f7465646f6e2c20757064617465646f6e292056414c55455320280000000000006040820152611626605a82018e611419565b622c202760e81b8152905061163f600382018c8e61136f565b6201396160ed1b81529050611657600382018b611419565b622c202760e81b8152905061166f600382018a611419565b63272c202760e01b8152905061168960048201888a61136f565b68272c20274f50454e2760b81b81529050622c202760e81b60098201526116b3600c820187611419565b63272c202760e01b815290506116cc6004820186611419565b63272c202760e01b815290506116e56004820185611419565b61272960f01b81526002019e9d5050505050505050505050505050565b60018060a01b03841681528260208201526060604082015260006117296060830184611315565b95945050505050565b60006020828403121561174457600080fd5b815160ff8116811461083357600080fd5b60006020828403121561176757600080fd5b5051919050565b6c021a922a0aa22902a20a126229609d1b81526000611790600d8301866114ef565b605f60f81b815284516117aa8160018401602089016112e9565b84519101906117c08160018401602088016112e9565b0160010195945050505050565b6001600160a01b0383168152604060208201819052600090610d4290830184611315565b60006117fd82866114ef565b605f60f81b8082528551611818816001850160208a016112e9565b600192019182015283516118338160028401602088016112e9565b0160020195945050505050565b634e487b7160e01b600052601260045260246000fd5b60008261186557611865611840565b500490565b634e487b7160e01b600052604160045260246000fd5b60008261188f5761188f611840565b500690565b60008160001904831182151516156118ae576118ae61138e565b500290565b6000816118c2576118c261138e565b506000190190565b6020808252602b908201527f496e697469616c697a61626c653a20636f6e7472616374206973206e6f74206960408201526a6e697469616c697a696e6760a81b60608201526080019056fe2028696420696e742c20646f6d61696e20746578742c2069735363616d20696e742c2065766964656e63657320746578742c20636f6d6d656e747320746578742c2073746174757320746578742c206163636f756e7420746578742c20637265617465646f6e20746578742c20757064617465646f6e20746578742c207072696d617279206b65792028696429293ba2646970667358221220413be109ba714437a757eccd424e8cf0406049a1b79fe3240166ab07c2a3b57364736f6c634300080c0033",
  "linkReferences": {},
  "deployedLinkReferences": {}
}