{
  "_format": "hh-sol-artifact-1",
  "contractName": "VoteModule",
  "sourceName": "contracts/VoteModule.sol",
  "abi": [
    {
      "inputs": [
        {
          "internalType": "address",
          "name": "_governanceBadgeNFT",
          "type": "address"
        },
        {
          "internalType": "uint256",
          "name": "_votePrice",
          "type": "uint256"
        },
        {
          "internalType": "uint256",
          "name": "_validationFees",
          "type": "uint256"
        },
        {
          "internalType": "address",
          "name": "_rewardTokenAddress",
          "type": "address"
        },
        {
          "internalType": "uint256",
          "name": "_rewardAmount",
          "type": "uint256"
        },
        {
          "internalType": "address payable",
          "name": "_treasuryContract",
          "type": "address"
        },
        {
          "internalType": "address",
          "name": "_wethAddress",
          "type": "address"
        }
      ],
      "stateMutability": "nonpayable",
      "type": "constructor"
    },
    {
      "anonymous": false,
      "inputs": [
        {
          "indexed": true,
          "internalType": "string",
          "name": "domain",
          "type": "string"
        },
        {
          "indexed": true,
          "internalType": "address",
          "name": "reporter",
          "type": "address"
        },
        {
          "indexed": false,
          "internalType": "bool",
          "name": "isScam",
          "type": "bool"
        }
      ],
      "name": "DomainReported",
      "type": "event"
    },
    {
      "anonymous": false,
      "inputs": [
        {
          "indexed": true,
          "internalType": "string",
          "name": "domain",
          "type": "string"
        },
        {
          "indexed": true,
          "internalType": "address",
          "name": "requestor",
          "type": "address"
        },
        {
          "indexed": false,
          "internalType": "bool",
          "name": "isScam",
          "type": "bool"
        },
        {
          "indexed": false,
          "internalType": "string",
          "name": "evidences",
          "type": "string"
        },
        {
          "indexed": false,
          "internalType": "string",
          "name": "comments",
          "type": "string"
        }
      ],
      "name": "ValidationRequest",
      "type": "event"
    },
    {
      "anonymous": false,
      "inputs": [
        {
          "indexed": true,
          "internalType": "string",
          "name": "domain",
          "type": "string"
        },
        {
          "indexed": true,
          "internalType": "address",
          "name": "validator",
          "type": "address"
        },
        {
          "indexed": false,
          "internalType": "bool",
          "name": "isApproved",
          "type": "bool"
        },
        {
          "indexed": false,
          "internalType": "string",
          "name": "validatorComments",
          "type": "string"
        }
      ],
      "name": "ValidationVerdict",
      "type": "event"
    },
    {
      "anonymous": false,
      "inputs": [
        {
          "indexed": true,
          "internalType": "address",
          "name": "buyer",
          "type": "address"
        },
        {
          "indexed": false,
          "internalType": "uint256",
          "name": "n",
          "type": "uint256"
        },
        {
          "indexed": false,
          "internalType": "uint256",
          "name": "totalCost",
          "type": "uint256"
        }
      ],
      "name": "VotesBought",
      "type": "event"
    },
    {
      "inputs": [
        {
          "internalType": "uint256",
          "name": "n",
          "type": "uint256"
        },
        {
          "internalType": "address",
          "name": "receiver",
          "type": "address"
        }
      ],
      "name": "buyVotes",
      "outputs": [],
      "stateMutability": "nonpayable",
      "type": "function"
    },
    {
      "inputs": [
        {
          "internalType": "uint256",
          "name": "n",
          "type": "uint256"
        },
        {
          "internalType": "string",
          "name": "domain",
          "type": "string"
        },
        {
          "internalType": "bool",
          "name": "isLegit",
          "type": "bool"
        }
      ],
      "name": "buyVotesWithEThAndVote",
      "outputs": [],
      "stateMutability": "payable",
      "type": "function"
    },
    {
      "inputs": [
        {
          "internalType": "uint256",
          "name": "n",
          "type": "uint256"
        },
        {
          "internalType": "address",
          "name": "receiver",
          "type": "address"
        }
      ],
      "name": "buyVotesWithEth",
      "outputs": [],
      "stateMutability": "payable",
      "type": "function"
    },
    {
      "inputs": [
        {
          "internalType": "string",
          "name": "domain",
          "type": "string"
        }
      ],
      "name": "getDomainVerdict",
      "outputs": [
        {
          "internalType": "string",
          "name": "",
          "type": "string"
        },
        {
          "internalType": "bool",
          "name": "",
          "type": "bool"
        },
        {
          "internalType": "bool",
          "name": "",
          "type": "bool"
        },
        {
          "internalType": "address",
          "name": "",
          "type": "address"
        },
        {
          "internalType": "enum VoteModule.Status",
          "name": "",
          "type": "uint8"
        },
        {
          "internalType": "string",
          "name": "",
          "type": "string"
        },
        {
          "internalType": "address",
          "name": "",
          "type": "address"
        }
      ],
      "stateMutability": "view",
      "type": "function"
    },
    {
      "inputs": [],
      "name": "getRewardAmount",
      "outputs": [
        {
          "internalType": "uint256",
          "name": "",
          "type": "uint256"
        }
      ],
      "stateMutability": "view",
      "type": "function"
    },
    {
      "inputs": [
        {
          "internalType": "string",
          "name": "domain",
          "type": "string"
        }
      ],
      "name": "getStrength",
      "outputs": [
        {
          "internalType": "uint256",
          "name": "strength",
          "type": "uint256"
        },
        {
          "internalType": "uint256",
          "name": "totalVotes",
          "type": "uint256"
        }
      ],
      "stateMutability": "view",
      "type": "function"
    },
    {
      "inputs": [],
      "name": "getValidationFees",
      "outputs": [
        {
          "internalType": "uint256",
          "name": "",
          "type": "uint256"
        }
      ],
      "stateMutability": "view",
      "type": "function"
    },
    {
      "inputs": [
        {
          "internalType": "string",
          "name": "domain",
          "type": "string"
        }
      ],
      "name": "getVoteCount",
      "outputs": [
        {
          "internalType": "uint256",
          "name": "",
          "type": "uint256"
        }
      ],
      "stateMutability": "view",
      "type": "function"
    },
    {
      "inputs": [],
      "name": "getVotePrice",
      "outputs": [
        {
          "internalType": "uint256",
          "name": "",
          "type": "uint256"
        }
      ],
      "stateMutability": "view",
      "type": "function"
    },
    {
      "inputs": [
        {
          "internalType": "address",
          "name": "user",
          "type": "address"
        }
      ],
      "name": "getVotesBalance",
      "outputs": [
        {
          "internalType": "uint256",
          "name": "",
          "type": "uint256"
        }
      ],
      "stateMutability": "view",
      "type": "function"
    },
    {
      "inputs": [],
      "name": "governanceBadgeNFT",
      "outputs": [
        {
          "internalType": "contract GovernanceBadgeNFT",
          "name": "",
          "type": "address"
        }
      ],
      "stateMutability": "view",
      "type": "function"
    },
    {
      "inputs": [
        {
          "internalType": "string",
          "name": "domain",
          "type": "string"
        },
        {
          "internalType": "bool",
          "name": "isLegit",
          "type": "bool"
        }
      ],
      "name": "reportDomain",
      "outputs": [],
      "stateMutability": "nonpayable",
      "type": "function"
    },
    {
      "inputs": [
        {
          "internalType": "string",
          "name": "domain",
          "type": "string"
        },
        {
          "internalType": "bool",
          "name": "isScam",
          "type": "bool"
        },
        {
          "internalType": "string[]",
          "name": "evidenceHashes",
          "type": "string[]"
        },
        {
          "internalType": "string",
          "name": "comments",
          "type": "string"
        }
      ],
      "name": "requestValidation",
      "outputs": [],
      "stateMutability": "payable",
      "type": "function"
    },
    {
      "inputs": [],
      "name": "rewardTokenContract",
      "outputs": [
        {
          "internalType": "contract IERC4626",
          "name": "",
          "type": "address"
        }
      ],
      "stateMutability": "view",
      "type": "function"
    },
    {
      "inputs": [],
      "name": "treasuryContract",
      "outputs": [
        {
          "internalType": "contract Treasury",
          "name": "",
          "type": "address"
        }
      ],
      "stateMutability": "view",
      "type": "function"
    },
    {
      "inputs": [
        {
          "internalType": "string",
          "name": "domain",
          "type": "string"
        },
        {
          "internalType": "bool",
          "name": "isApproved",
          "type": "bool"
        },
        {
          "internalType": "string",
          "name": "_validatorComments",
          "type": "string"
        }
      ],
      "name": "verifyValidationRequest",
      "outputs": [],
      "stateMutability": "nonpayable",
      "type": "function"
    },
    {
      "inputs": [],
      "name": "wethAddress",
      "outputs": [
        {
          "internalType": "address",
          "name": "",
          "type": "address"
        }
      ],
      "stateMutability": "view",
      "type": "function"
    },
    {
      "inputs": [],
      "name": "withdraw",
      "outputs": [],
      "stateMutability": "nonpayable",
      "type": "function"
    },
    {
      "inputs": [],
      "name": "withdrawETH",
      "outputs": [],
      "stateMutability": "nonpayable",
      "type": "function"
    }
  ],
  "bytecode": "0x60806040523480156200001157600080fd5b5060405162002f7938038062002f798339810160408190526200003491620000af565b600680546001600160a01b039889166001600160a01b0319918216179091556000969096556001949094556003805493871693861693909317909255600255600480549185169184169190911790556005805491909316911617905562000137565b6001600160a01b0381168114620000ac57600080fd5b50565b600080600080600080600060e0888a031215620000cb57600080fd5b8751620000d88162000096565b8097505060208801519550604088015194506060880151620000fa8162000096565b608089015160a08a01519195509350620001148162000096565b60c0890151909250620001278162000096565b8091505092959891949750929550565b612e3280620001476000396000f3fe6080604052600436106101145760003560e01c80639c0f103a116100a0578063b489deb011610064578063b489deb0146102f3578063c3484c5714610313578063e086e5ec14610328578063e481760f1461033d578063e95129e11461035d57600080fd5b80639c0f103a14610238578063ab273e811461024b578063b04401021461026b578063b1be828e1461028b578063b34a53c8146102c057600080fd5b80631e437d4f116100e75780631e437d4f146101ae5780633ccfd60b146101c35780634f0e0ef3146101d857806354729587146101f85780636ff91b6f1461021857600080fd5b8063069953a71461011957806309a69f571461014c57806318da0011146101615780631906ff9814610199575b600080fd5b34801561012557600080fd5b50610139610134366004612673565b610370565b6040519081526020015b60405180910390f35b34801561015857600080fd5b50600254610139565b34801561016d57600080fd5b50600454610181906001600160a01b031681565b6040516001600160a01b039091168152602001610143565b3480156101a557600080fd5b50600054610139565b6101c16101bc3660046126b6565b610398565b005b3480156101cf57600080fd5b506101c16103b1565b3480156101e457600080fd5b50600554610181906001600160a01b031681565b34801561020457600080fd5b506101c1610213366004612728565b610516565b34801561022457600080fd5b506101c1610233366004612796565b6106d2565b6101c1610246366004612811565b610d88565b34801561025757600080fd5b50600354610181906001600160a01b031681565b34801561027757600080fd5b506101396102863660046128f1565b611567565b34801561029757600080fd5b506102ab6102a6366004612913565b6116cc565b60408051928352602083019190915201610143565b3480156102cc57600080fd5b506102e06102db366004612673565b611842565b60405161014397969594939291906129c3565b3480156102ff57600080fd5b506101c161030e366004612a44565b611b7f565b34801561031f57600080fd5b50600154610139565b34801561033457600080fd5b506101c1611b89565b34801561034957600080fd5b50600654610181906001600160a01b031681565b6101c161036b366004612728565b611dec565b60006007826040516103829190612a96565b9081526020016040518091039020549050919050565b6103a28333611dec565b6103ac8282611eb7565b505050565b6003546040516370a0823160e01b81523360048201526000916001600160a01b0316906370a0823190602401602060405180830381865afa1580156103fa573d6000803e3d6000fd5b505050506040513d601f19601f8201168201806040525081019061041e9190612ab2565b6003546040516323b872dd60e01b81529192506001600160a01b0316906323b872dd9061045390339030908690600401612acb565b6020604051808303816000875af1158015610472573d6000803e3d6000fd5b505050506040513d601f19601f820116820180604052508101906104969190612aef565b50600354604051635d043b2960e11b8152600481018390523360248201523060448201526001600160a01b039091169063ba087652906064016020604051808303816000875af11580156104ee573d6000803e3d6000fd5b505050506040513d601f19601f820116820180604052508101906105129190612ab2565b5050565b816105585760405162461bcd60e51b815260206004820152600d60248201526c6e2073686f756c64203e3d203160981b60448201526064015b60405180910390fd5b61058a6040518060400160405280601081526020016f7472616e73666572696e67303a20257360801b815250836120be565b600080546105988480612b22565b6105a29190612b22565b90506105d66040518060400160405280601081526020016f7472616e73666572696e67313a20257360801b815250826120be565b6005546040516323b872dd60e01b81526000916001600160a01b0316906323b872dd9061060b90339030908790600401612acb565b6020604051808303816000875af115801561062a573d6000803e3d6000fd5b505050506040513d601f19601f8201168201806040525081019061064e9190612aef565b905061067d6040518060400160405280600c81526020016b3a3930b739b332b934b7339960a11b815250612103565b806106c15760405162461bcd60e51b815260206004820152601460248201527315d15512081d1c985b9cd9995c8819985a5b195960621b604482015260640161054f565b6106cc828585612149565b50505050565b6106dc60016122a7565b60065460408051634c12a92560e11b815290516001600160a01b0390921691600091839162fdd58e9133918491639825524a9160048083019260209291908290030181865afa158015610733573d6000803e3d6000fd5b505050506040513d601f19601f820116820180604052508101906107579190612b41565b6040516001600160e01b031960e085901b1681526001600160a01b03909216600483015260ff166024820152604401602060405180830381865afa1580156107a3573d6000803e3d6000fd5b505050506040513d601f19601f820116820180604052508101906107c79190612ab2565b90506107d3600c6122a7565b600081116108315760405162461bcd60e51b815260206004820152602560248201527f4f6e6c792073656c65637465642076616c696461746f72732063616e2076616c604482015264696461746560d81b606482015260840161054f565b61083b600d6122a7565b6000600a8760405161084d9190612a96565b90815260200160405180910390209050610867600e6122a7565b600181015461010090046001600160a01b03166108bb5760405162461bcd60e51b8152602060048201526012602482015271139bc81c195b991a5b99c81c995c5d595cdd60721b604482015260640161054f565b6108c560026122a7565b600481018054610100600160a81b0319163361010002179055600181015460009060ff1680156108f25750865b8061090b5750600182015460ff1615801561090b575086155b90508615610a655761093d60405180604001604052806009815260200168617070726f76696e6760b81b815250612103565b6004820180546002919060ff1916600183021790555060068201805460ff19168215151790556109716005830187876124a5565b50600182810154905460405160009261010090046001600160a01b0316916108fc8115029184818181858888f193505050509050806109ea5760405162461bcd60e51b81526020600482015260156024820152744661696c656420746f2072657475726e206665657360581b604482015260640161054f565b6004805460055460018601546002546040516323e5d69960e21b81526001600160a01b0394851695638f975a6495610a2d95811694610100900416929101612acb565b600060405180830381600087803b158015610a4757600080fd5b505af1158015610a5b573d6000803e3d6000fd5b5050505050610bec565b6004828101805460ff1916600317905560408051808201909152601581527472656a656374696e672c2025732c2025732c20257360581b602082015290546001544792610ac09290916001600160a01b0390911690846122ec565b6000600460009054906101000a90046001600160a01b03166001600160a01b0316633ecfd51e6001546040518263ffffffff1660e01b815260040160206040518083038185885af1158015610b19573d6000803e3d6000fd5b50505050506040513d601f19601f82011682018060405250810190610b3e9190612aef565b9050610b706040518060400160405280600e81526020016d66756e64732073656e743a20257360901b81525082612335565b80610bbd5760405162461bcd60e51b815260206004820152601f60248201527f4661696c656420746f206d6f7665206665657320746f20747265617375727900604482015260640161054f565b610be96040518060400160405280600b81526020016a333ab732399039b2b73a1960a91b815250612103565b50505b610bf660036122a7565b610c0060056122a7565b6000600789604051610c129190612a96565b908152602001604051809103902054905060005b81811015610cd157600060088b604051610c409190612a96565b90815260200160405180910390208281548110610c5f57610c5f612b64565b6000918252602090912001546040516001600160a01b039091169150600990610c89908d90612a96565b90815260408051602092819003830190206001600160a01b0393909316600090815292909152902080546001600160a81b031916905580610cc981612b7a565b915050610c26565b50600060078a604051610ce49190612a96565b908152602001604051809103902081905550600889604051610d069190612a96565b90815260200160405180910390206000610d209190612529565b6040513390610d30908b90612a96565b60405180910390207f545bb19b3428dad2b633dde00c141c79384fc90159d7115e5e0143d91ba8bfea8a8a8a604051610d6b93929190612bbe565b60405180910390a3610d7d60066122a7565b505050505050505050565b610d92606f6122a7565b6000610d9e88886116cc565b509050610dad607a878361237a565b858015610dbc57506113ec8110155b80610dd1575085158015610dd157506113ec81105b610e1d5760405162461bcd60e51b815260206004820152601e60248201527f56616c69646174696f6e2072657175657374206e6f7420616c6c6f7765640000604482015260640161054f565b6000600a8989604051610e31929190612be3565b908152602001604051809103902060405180610120016040529081600082018054610e5b90612bf3565b80601f0160208091040260200160405190810160405280929190818152602001828054610e8790612bf3565b8015610ed45780601f10610ea957610100808354040283529160200191610ed4565b820191906000526020600020905b815481529060010190602001808311610eb757829003601f168201915b5050509183525050600182015460ff81161515602083015261010090046001600160a01b03166040820152600282018054606090920191610f1490612bf3565b80601f0160208091040260200160405190810160405280929190818152602001828054610f4090612bf3565b8015610f8d5780601f10610f6257610100808354040283529160200191610f8d565b820191906000526020600020905b815481529060010190602001808311610f7057829003601f168201915b50505050508152602001600382018054610fa690612bf3565b80601f0160208091040260200160405190810160405280929190818152602001828054610fd290612bf3565b801561101f5780601f10610ff45761010080835404028352916020019161101f565b820191906000526020600020905b81548152906001019060200180831161100257829003601f168201915b5050509183525050600482015460209091019060ff166003811115611046576110466129ad565b6003811115611057576110576129ad565b8152600482015461010090046001600160a01b0316602082015260058201805460409092019161108690612bf3565b80601f01602080910402602001604051908101604052809291908181526020018280546110b290612bf3565b80156110ff5780601f106110d4576101008083540402835291602001916110ff565b820191906000526020600020905b8154815290600101906020018083116110e257829003601f168201915b50505091835250506006919091015460ff161515602090910152905060018160a001516003811115611133576111336129ad565b14156111785760405162461bcd60e51b815260206004820152601460248201527350656e64696e6720636c61696d2065786973747360601b604482015260640161054f565b61118260856122a7565b60015434146111d35760405162461bcd60e51b815260206004820152601860248201527f496e636f72726563742076616c69646174696f6e206665650000000000000000604482015260640161054f565b6111dd60906122a7565b604080516020810190915260008152858061123a5760405162461bcd60e51b815260206004820152601c60248201527f526571756972652061746c65617374206f6e652065766964656e636500000000604482015260640161054f565b61124460a66122a7565b60005b818110156112dd578289898381811061126257611262612b64565b90506020028101906112749190612c28565b60405160200161128693929190612c6f565b60408051601f1981840301815291905292506112a3600183612c97565b8110156112cd57826040516020016112bb9190612cae565b60405160208183030381529060405292505b6112d681612b7a565b9050611247565b506112e860b16122a7565b6040518061012001604052808c8c8080601f0160208091040260200160405190810160405280939291908181526020018383808284376000920191909152505050908252508a1515602080830191909152336040808401919091528051601f8a01839004830281018301909152888152606090920191908990899081908401838280828437600092019190915250505090825250602081018490526040016001815260200160006001600160a01b0316815260200160405180602001604052806000815250815260200160001515815250600a8c8c6040516113cb929190612be3565b908152602001604051809103902060008201518160000190805190602001906113f5929190612547565b5060208281015160018301805460408601516001600160a01b031661010002610100600160a81b0319931515939093166001600160a81b0319909116179190911790556060830151805161144f9260028501920190612547565b506080820151805161146b916003840191602090910190612547565b5060a082015160048201805460ff1916600183600381111561148f5761148f6129ad565b021790555060c08201516004820180546001600160a01b0390921661010002610100600160a81b031990921691909117905560e082015180516114dc916005840191602090910190612547565b5061010091909101516006909101805460ff191691151591909117905561150360bc6122a7565b6040513390611515908d908d90612be3565b60405180910390207f7288fb6740cb956e23bd849ee535da452eb8408ca005fdd47c37e7a2cee668e88b858a8a6040516115529493929190612cd3565b60405180910390a35050505050505050505050565b6003546040516370a0823160e01b81526001600160a01b03838116600483015260009283929116906370a0823190602401602060405180830381865afa1580156115b5573d6000803e3d6000fd5b505050506040513d601f19601f820116820180604052508101906115d99190612ab2565b90506116046040518060400160405280600781526020016662616c3a20257360c81b815250826120be565b60035460405163266d6a8360e11b8152600481018390526000916001600160a01b031690634cdad50690602401602060405180830381865afa15801561164e573d6000803e3d6000fd5b505050506040513d601f19601f820116820180604052508101906116729190612ab2565b90506116ae6040518060400160405280601581526020017476616c75653a2025732c207265776172643a20257360581b815250826000546123c9565b6116c4600054826116bf9190612d0c565b612410565b949350505050565b6000806000600785856040516116e3929190612be3565b9081526020016040518091039020549050806000141561170a57600080925092505061183b565b600080805b8381101561181c5760006008898960405161172b929190612be3565b9081526020016040518091039020828154811061174a5761174a612b64565b60009182526020822001546040516001600160a01b039091169250600990611775908c908c90612be3565b90815260408051602092819003830181206001600160a01b03868116600090815291855283822083850190945292549283168252600160a01b90920460ff1615159281018390529250906117ca5760016117cd565b60005b60ff16905060006117e18360000151611567565b90506117ed8183612b22565b6117f79088612d2e565b96506118038187612d2e565b955050505050808061181490612b7a565b91505061170f565b508061182a83612710612b22565b6118349190612d0c565b9450925050505b9250929050565b60606000806000806060600080600a8960405161185f9190612a96565b90815260200160405180910390206040518061012001604052908160008201805461188990612bf3565b80601f01602080910402602001604051908101604052809291908181526020018280546118b590612bf3565b80156119025780601f106118d757610100808354040283529160200191611902565b820191906000526020600020905b8154815290600101906020018083116118e557829003601f168201915b5050509183525050600182015460ff81161515602083015261010090046001600160a01b0316604082015260028201805460609092019161194290612bf3565b80601f016020809104026020016040519081016040528092919081815260200182805461196e90612bf3565b80156119bb5780601f10611990576101008083540402835291602001916119bb565b820191906000526020600020905b81548152906001019060200180831161199e57829003601f168201915b505050505081526020016003820180546119d490612bf3565b80601f0160208091040260200160405190810160405280929190818152602001828054611a0090612bf3565b8015611a4d5780601f10611a2257610100808354040283529160200191611a4d565b820191906000526020600020905b815481529060010190602001808311611a3057829003601f168201915b5050509183525050600482015460209091019060ff166003811115611a7457611a746129ad565b6003811115611a8557611a856129ad565b8152600482015461010090046001600160a01b03166020820152600582018054604090920191611ab490612bf3565b80601f0160208091040260200160405190810160405280929190818152602001828054611ae090612bf3565b8015611b2d5780601f10611b0257610100808354040283529160200191611b2d565b820191906000526020600020905b815481529060010190602001808311611b1057829003601f168201915b50505091835250506006919091015460ff161515602091820152815190820151610100830151604084015160a085015160e086015160c090960151949f939e50919c509a509850919650945092505050565b6105128282611eb7565b6003546040516370a0823160e01b81523360048201526000916001600160a01b0316906370a0823190602401602060405180830381865afa158015611bd2573d6000803e3d6000fd5b505050506040513d601f19601f82011682018060405250810190611bf69190612ab2565b905060008111611c355760405162461bcd60e51b815260206004820152600a6024820152696e6f2062616c616e636560b01b604482015260640161054f565b6003546040516323b872dd60e01b81526001600160a01b03909116906323b872dd90611c6990339030908690600401612acb565b6020604051808303816000875af1158015611c88573d6000803e3d6000fd5b505050506040513d601f19601f82011682018060405250810190611cac9190612aef565b50600354604051635d043b2960e11b815260048101839052306024820181905260448201526000916001600160a01b03169063ba087652906064016020604051808303816000875af1158015611d06573d6000803e3d6000fd5b505050506040513d601f19601f82011682018060405250810190611d2a9190612ab2565b600554604051632e1a7d4d60e01b8152600481018390529192506001600160a01b031690632e1a7d4d90602401600060405180830381600087803b158015611d7157600080fd5b505af1158015611d85573d6000803e3d6000fd5b50506040516000925033915083156108fc0290849084818181858888f193505050509050806103ac5760405162461bcd60e51b8152602060048201526013602482015272115512081d1c985b9cd9995c8819985a5b1959606a1b604482015260640161054f565b81611e295760405162461bcd60e51b815260206004820152600d60248201526c6e2073686f756c64203e3d203160981b604482015260640161054f565b60008054611e378480612b22565b611e419190612b22565b9050600560009054906101000a90046001600160a01b03166001600160a01b031663d0e30db0826040518263ffffffff1660e01b81526004016000604051808303818588803b158015611e9357600080fd5b505af1158015611ea7573d6000803e3d6000fd5b50505050506103ac818484612149565b6000600783604051611ec99190612a96565b908152602001604051809103902054905060328110611f2a5760405162461bcd60e51b815260206004820152601760248201527f4d617820353020766f7465732070657220646f6d61696e000000000000000000604482015260640161054f565b6000600984604051611f3c9190612a96565b908152604080516020928190038301812033600090815290845282902081830190925290546001600160a01b038116808352600160a01b90910460ff161515928201929092529150611ffb57600884604051611f989190612a96565b9081526040519081900360209081018220805460018101825560009182529190200180546001600160a01b03191633179055600790611fd8908690612a96565b9081526040519081900360200190208054906000611ff583612b7a565b91905055505b6040805180820182523381528415156020820152905160099061201f908790612a96565b9081526040805191829003602090810183203360008181529183529290208451815495909201511515600160a01b026001600160a81b03199095166001600160a01b0392909216919091179390931790925561207c908690612a96565b6040519081900381208515158252907fca761efcab797421b7902d90c61c33979538efa206fe5ce5ef79e1b7b727472a9060200160405180910390a350505050565b61051282826040516024016120d4929190612d46565b60408051601f198184030181529190526020810180516001600160e01b0316632d839cb360e21b179052612480565b612146816040516024016121179190612d68565b60408051601f198184030181529190526020810180516001600160e01b031663104c13eb60e21b179052612480565b50565b60055460035460405163095ea7b360e01b81526001600160a01b0391821660048201526024810186905291169063095ea7b3906044016020604051808303816000875af115801561219e573d6000803e3d6000fd5b505050506040513d601f19601f820116820180604052508101906121c29190612aef565b506121f06040518060400160405280600c81526020016b7472616e73666572696e673360a01b815250612103565b600354604051636e553f6560e01b8152600481018590526001600160a01b03838116602483015290911690636e553f65906044016020604051808303816000875af1158015612243573d6000803e3d6000fd5b505050506040513d601f19601f820116820180604052508101906122679190612ab2565b50604080518381526020810185905233917efaaf3336e5c925e4d3017cc75d38ca026330a20faef146fd24501f98d16cb7910160405180910390a2505050565b612146816040516024016122bd91815260200190565b60408051601f198184030181529190526020810180516001600160e01b031663f82c50f160e01b179052612480565b6106cc848484846040516024016123069493929190612d7b565b60408051601f198184030181529190526020810180516001600160e01b0316637c7a8d8f60e11b179052612480565b610512828260405160240161234b929190612db3565b60408051601f198184030181529190526020810180516001600160e01b031663c3b5563560e01b179052612480565b604051602481018490528215156044820152606481018290526103ac9060840160408051601f198184030181529190526020810180516001600160e01b0316630802600560e21b179052612480565b6103ac8383836040516024016123e193929190612dd7565b60408051601f198184030181529190526020810180516001600160e01b031663ca47c4eb60e01b179052612480565b60006003821115612471575080600061242a600283612d0c565b612435906001612d2e565b90505b8181101561246b579050806002816124508186612d0c565b61245a9190612d2e565b6124649190612d0c565b9050612438565b50919050565b811561247b575060015b919050565b6121468160006a636f6e736f6c652e6c6f679050600080835160208501845afa505050565b8280546124b190612bf3565b90600052602060002090601f0160209004810192826124d35760008555612519565b82601f106124ec5782800160ff19823516178555612519565b82800160010185558215612519579182015b828111156125195782358255916020019190600101906124fe565b506125259291506125bb565b5090565b508054600082559060005260206000209081019061214691906125bb565b82805461255390612bf3565b90600052602060002090601f0160209004810192826125755760008555612519565b82601f1061258e57805160ff1916838001178555612519565b82800160010185558215612519579182015b828111156125195782518255916020019190600101906125a0565b5b8082111561252557600081556001016125bc565b634e487b7160e01b600052604160045260246000fd5b600082601f8301126125f757600080fd5b813567ffffffffffffffff80821115612612576126126125d0565b604051601f8301601f19908116603f0116810190828211818310171561263a5761263a6125d0565b8160405283815286602085880101111561265357600080fd5b836020870160208301376000602085830101528094505050505092915050565b60006020828403121561268557600080fd5b813567ffffffffffffffff81111561269c57600080fd5b6116c4848285016125e6565b801515811461214657600080fd5b6000806000606084860312156126cb57600080fd5b83359250602084013567ffffffffffffffff8111156126e957600080fd5b6126f5868287016125e6565b9250506040840135612706816126a8565b809150509250925092565b80356001600160a01b038116811461247b57600080fd5b6000806040838503121561273b57600080fd5b8235915061274b60208401612711565b90509250929050565b60008083601f84011261276657600080fd5b50813567ffffffffffffffff81111561277e57600080fd5b60208301915083602082850101111561183b57600080fd5b600080600080606085870312156127ac57600080fd5b843567ffffffffffffffff808211156127c457600080fd5b6127d0888389016125e6565b9550602087013591506127e2826126a8565b909350604086013590808211156127f857600080fd5b5061280587828801612754565b95989497509550505050565b60008060008060008060006080888a03121561282c57600080fd5b873567ffffffffffffffff8082111561284457600080fd5b6128508b838c01612754565b909950975060208a01359150612865826126a8565b9095506040890135908082111561287b57600080fd5b818a0191508a601f83011261288f57600080fd5b81358181111561289e57600080fd5b8b60208260051b85010111156128b357600080fd5b6020830196508095505060608a01359150808211156128d157600080fd5b506128de8a828b01612754565b989b979a50959850939692959293505050565b60006020828403121561290357600080fd5b61290c82612711565b9392505050565b6000806020838503121561292657600080fd5b823567ffffffffffffffff81111561293d57600080fd5b61294985828601612754565b90969095509350505050565b60005b83811015612970578181015183820152602001612958565b838111156106cc5750506000910152565b60008151808452612999816020860160208601612955565b601f01601f19169290920160200192915050565b634e487b7160e01b600052602160045260246000fd5b60e0815260006129d660e083018a612981565b881515602084015287151560408401526001600160a01b03878116606085015260048710612a1457634e487b7160e01b600052602160045260246000fd5b86608085015283820360a0850152612a2c8287612981565b925080851660c0850152505098975050505050505050565b60008060408385031215612a5757600080fd5b823567ffffffffffffffff811115612a6e57600080fd5b612a7a858286016125e6565b9250506020830135612a8b816126a8565b809150509250929050565b60008251612aa8818460208701612955565b9190910192915050565b600060208284031215612ac457600080fd5b5051919050565b6001600160a01b039384168152919092166020820152604081019190915260600190565b600060208284031215612b0157600080fd5b815161290c816126a8565b634e487b7160e01b600052601160045260246000fd5b6000816000190483118215151615612b3c57612b3c612b0c565b500290565b600060208284031215612b5357600080fd5b815160ff8116811461290c57600080fd5b634e487b7160e01b600052603260045260246000fd5b6000600019821415612b8e57612b8e612b0c565b5060010190565b81835281816020850137506000828201602090810191909152601f909101601f19169091010190565b8315158152604060208201526000612bda604083018486612b95565b95945050505050565b8183823760009101908152919050565b600181811c90821680612c0757607f821691505b6020821081141561246b57634e487b7160e01b600052602260045260246000fd5b6000808335601e19843603018112612c3f57600080fd5b83018035915067ffffffffffffffff821115612c5a57600080fd5b60200191503681900382131561183b57600080fd5b60008451612c81818460208901612955565b8201838582376000930192835250909392505050565b600082821015612ca957612ca9612b0c565b500390565b60008251612cc0818460208701612955565b600b60fa1b920191825250600101919050565b8415158152606060208201526000612cee6060830186612981565b8281036040840152612d01818587612b95565b979650505050505050565b600082612d2957634e487b7160e01b600052601260045260246000fd5b500490565b60008219821115612d4157612d41612b0c565b500190565b604081526000612d596040830185612981565b90508260208301529392505050565b60208152600061290c6020830184612981565b608081526000612d8e6080830187612981565b6001600160a01b03959095166020830152506040810192909252606090910152919050565b604081526000612dc66040830185612981565b905082151560208301529392505050565b606081526000612dea6060830186612981565b6020830194909452506040015291905056fea2646970667358221220380662c6c71328ba43f2cca82dd9e4f0873238c2d2ddd3485a5ac424a90ec4c264736f6c634300080c0033",
  "linkReferences": {},
  "deployedLinkReferences": {}
}