{
  "_format": "hh-sol-artifact-1",
  "contractName": "Token",
  "sourceName": "contracts/Token.sol",
  "abi": [
    {
      "anonymous": false,
      "inputs": [
        {
          "indexed": true,
          "internalType": "address",
          "name": "owner",
          "type": "address"
        },
        {
          "indexed": true,
          "internalType": "address",
          "name": "spender",
          "type": "address"
        },
        {
          "indexed": false,
          "internalType": "uint256",
          "name": "value",
          "type": "uint256"
        }
      ],
      "name": "Approval",
      "type": "event"
    },
    {
      "anonymous": false,
      "inputs": [
        {
          "indexed": false,
          "internalType": "uint8",
          "name": "version",
          "type": "uint8"
        }
      ],
      "name": "Initialized",
      "type": "event"
    },
    {
      "anonymous": false,
      "inputs": [
        {
          "indexed": true,
          "internalType": "address",
          "name": "previousOwner",
          "type": "address"
        },
        {
          "indexed": true,
          "internalType": "address",
          "name": "newOwner",
          "type": "address"
        }
      ],
      "name": "OwnershipTransferred",
      "type": "event"
    },
    {
      "anonymous": false,
      "inputs": [
        {
          "indexed": true,
          "internalType": "address",
          "name": "from",
          "type": "address"
        },
        {
          "indexed": true,
          "internalType": "address",
          "name": "to",
          "type": "address"
        },
        {
          "indexed": false,
          "internalType": "uint256",
          "name": "value",
          "type": "uint256"
        }
      ],
      "name": "Transfer",
      "type": "event"
    },
    {
      "inputs": [],
      "name": "MAX_SUPPLY",
      "outputs": [
        {
          "internalType": "uint256",
          "name": "",
          "type": "uint256"
        }
      ],
      "stateMutability": "view",
      "type": "function"
    },
    {
      "inputs": [
        {
          "internalType": "address",
          "name": "owner",
          "type": "address"
        },
        {
          "internalType": "address",
          "name": "spender",
          "type": "address"
        }
      ],
      "name": "allowance",
      "outputs": [
        {
          "internalType": "uint256",
          "name": "",
          "type": "uint256"
        }
      ],
      "stateMutability": "view",
      "type": "function"
    },
    {
      "inputs": [
        {
          "internalType": "address",
          "name": "spender",
          "type": "address"
        },
        {
          "internalType": "uint256",
          "name": "amount",
          "type": "uint256"
        }
      ],
      "name": "approve",
      "outputs": [
        {
          "internalType": "bool",
          "name": "",
          "type": "bool"
        }
      ],
      "stateMutability": "nonpayable",
      "type": "function"
    },
    {
      "inputs": [
        {
          "internalType": "address",
          "name": "account",
          "type": "address"
        }
      ],
      "name": "balanceOf",
      "outputs": [
        {
          "internalType": "uint256",
          "name": "",
          "type": "uint256"
        }
      ],
      "stateMutability": "view",
      "type": "function"
    },
    {
      "inputs": [],
      "name": "decimals",
      "outputs": [
        {
          "internalType": "uint8",
          "name": "",
          "type": "uint8"
        }
      ],
      "stateMutability": "view",
      "type": "function"
    },
    {
      "inputs": [
        {
          "internalType": "address",
          "name": "spender",
          "type": "address"
        },
        {
          "internalType": "uint256",
          "name": "subtractedValue",
          "type": "uint256"
        }
      ],
      "name": "decreaseAllowance",
      "outputs": [
        {
          "internalType": "bool",
          "name": "",
          "type": "bool"
        }
      ],
      "stateMutability": "nonpayable",
      "type": "function"
    },
    {
      "inputs": [
        {
          "internalType": "address",
          "name": "spender",
          "type": "address"
        },
        {
          "internalType": "uint256",
          "name": "addedValue",
          "type": "uint256"
        }
      ],
      "name": "increaseAllowance",
      "outputs": [
        {
          "internalType": "bool",
          "name": "",
          "type": "bool"
        }
      ],
      "stateMutability": "nonpayable",
      "type": "function"
    },
    {
      "inputs": [
        {
          "internalType": "string",
          "name": "_name",
          "type": "string"
        },
        {
          "internalType": "string",
          "name": "_symbol",
          "type": "string"
        }
      ],
      "name": "initialize",
      "outputs": [],
      "stateMutability": "nonpayable",
      "type": "function"
    },
    {
      "inputs": [
        {
          "internalType": "address",
          "name": "to",
          "type": "address"
        },
        {
          "internalType": "uint256",
          "name": "quantity",
          "type": "uint256"
        }
      ],
      "name": "mint",
      "outputs": [],
      "stateMutability": "nonpayable",
      "type": "function"
    },
    {
      "inputs": [],
      "name": "name",
      "outputs": [
        {
          "internalType": "string",
          "name": "",
          "type": "string"
        }
      ],
      "stateMutability": "view",
      "type": "function"
    },
    {
      "inputs": [],
      "name": "owner",
      "outputs": [
        {
          "internalType": "address",
          "name": "",
          "type": "address"
        }
      ],
      "stateMutability": "view",
      "type": "function"
    },
    {
      "inputs": [],
      "name": "renounceOwnership",
      "outputs": [],
      "stateMutability": "nonpayable",
      "type": "function"
    },
    {
      "inputs": [],
      "name": "symbol",
      "outputs": [
        {
          "internalType": "string",
          "name": "",
          "type": "string"
        }
      ],
      "stateMutability": "view",
      "type": "function"
    },
    {
      "inputs": [],
      "name": "totalSupply",
      "outputs": [
        {
          "internalType": "uint256",
          "name": "",
          "type": "uint256"
        }
      ],
      "stateMutability": "view",
      "type": "function"
    },
    {
      "inputs": [
        {
          "internalType": "address",
          "name": "to",
          "type": "address"
        },
        {
          "internalType": "uint256",
          "name": "amount",
          "type": "uint256"
        }
      ],
      "name": "transfer",
      "outputs": [
        {
          "internalType": "bool",
          "name": "",
          "type": "bool"
        }
      ],
      "stateMutability": "nonpayable",
      "type": "function"
    },
    {
      "inputs": [
        {
          "internalType": "address",
          "name": "from",
          "type": "address"
        },
        {
          "internalType": "address",
          "name": "to",
          "type": "address"
        },
        {
          "internalType": "uint256",
          "name": "amount",
          "type": "uint256"
        }
      ],
      "name": "transferFrom",
      "outputs": [
        {
          "internalType": "bool",
          "name": "",
          "type": "bool"
        }
      ],
      "stateMutability": "nonpayable",
      "type": "function"
    },
    {
      "inputs": [
        {
          "internalType": "address",
          "name": "newOwner",
          "type": "address"
        }
      ],
      "name": "transferOwnership",
      "outputs": [],
      "stateMutability": "nonpayable",
      "type": "function"
    }
  ],
  "bytecode": "0x608060405234801561001057600080fd5b50610f5d806100206000396000f3fe608060405234801561001057600080fd5b506004361061010b5760003560e01c80634cd88b76116100a257806395d89b411161007157806395d89b4114610215578063a457c2d71461021d578063a9059cbb14610230578063dd62ed3e14610243578063f2fde38b1461025657600080fd5b80634cd88b76146101b657806370a08231146101c9578063715018a6146101f25780638da5cb5b146101fa57600080fd5b8063313ce567116100de578063313ce5671461017657806332cb6b0c14610185578063395093511461018e57806340c10f19146101a157600080fd5b806306fdde0314610110578063095ea7b31461012e57806318160ddd1461015157806323b872dd14610163575b600080fd5b610118610269565b6040516101259190610c48565b60405180910390f35b61014161013c366004610cb9565b6102fb565b6040519015158152602001610125565b6035545b604051908152602001610125565b610141610171366004610ce3565b610313565b60405160128152602001610125565b61015560975481565b61014161019c366004610cb9565b610337565b6101b46101af366004610cb9565b610359565b005b6101b46101c4366004610dc2565b6103d0565b6101556101d7366004610e26565b6001600160a01b031660009081526033602052604090205490565b6101b46104ed565b6065546040516001600160a01b039091168152602001610125565b610118610501565b61014161022b366004610cb9565b610510565b61014161023e366004610cb9565b61058b565b610155610251366004610e48565b610599565b6101b4610264366004610e26565b6105c4565b60606036805461027890610e7b565b80601f01602080910402602001604051908101604052809291908181526020018280546102a490610e7b565b80156102f15780601f106102c6576101008083540402835291602001916102f1565b820191906000526020600020905b8154815290600101906020018083116102d457829003601f168201915b5050505050905090565b60003361030981858561063d565b5060019392505050565b600033610321858285610761565b61032c8585856107db565b506001949350505050565b60003361030981858561034a8383610599565b6103549190610eb6565b61063d565b6103616109a9565b6097548161036e60355490565b6103789190610eb6565b11156103c25760405162461bcd60e51b8152602060048201526014602482015273457863656564696e67206d617820737570706c7960601b60448201526064015b60405180910390fd5b6103cc8282610a03565b5050565b600054610100900460ff16158080156103f05750600054600160ff909116105b8061040a5750303b15801561040a575060005460ff166001145b61046d5760405162461bcd60e51b815260206004820152602e60248201527f496e697469616c697a61626c653a20636f6e747261637420697320616c72656160448201526d191e481a5b9a5d1a585b1a5e995960921b60648201526084016103b9565b6000805460ff191660011790558015610490576000805461ff0019166101001790555b61049a8383610ae2565b633b9aca0060975580156104e8576000805461ff0019169055604051600181527f7f26b83ff96e1f2b6a682f133852f6798a09c465da95921460cefb38474024989060200160405180910390a15b505050565b6104f56109a9565b6104ff6000610b13565b565b60606037805461027890610e7b565b6000338161051e8286610599565b90508381101561057e5760405162461bcd60e51b815260206004820152602560248201527f45524332303a2064656372656173656420616c6c6f77616e63652062656c6f77604482015264207a65726f60d81b60648201526084016103b9565b61032c828686840361063d565b6000336103098185856107db565b6001600160a01b03918216600090815260346020908152604080832093909416825291909152205490565b6105cc6109a9565b6001600160a01b0381166106315760405162461bcd60e51b815260206004820152602660248201527f4f776e61626c653a206e6577206f776e657220697320746865207a65726f206160448201526564647265737360d01b60648201526084016103b9565b61063a81610b13565b50565b6001600160a01b03831661069f5760405162461bcd60e51b8152602060048201526024808201527f45524332303a20617070726f76652066726f6d20746865207a65726f206164646044820152637265737360e01b60648201526084016103b9565b6001600160a01b0382166107005760405162461bcd60e51b815260206004820152602260248201527f45524332303a20617070726f766520746f20746865207a65726f206164647265604482015261737360f01b60648201526084016103b9565b6001600160a01b0383811660008181526034602090815260408083209487168084529482529182902085905590518481527f8c5be1e5ebec7d5bd14f71427d1e84f3dd0314c0f7b2291e5b200ac8c7c3b925910160405180910390a3505050565b600061076d8484610599565b905060001981146107d557818110156107c85760405162461bcd60e51b815260206004820152601d60248201527f45524332303a20696e73756666696369656e7420616c6c6f77616e636500000060448201526064016103b9565b6107d5848484840361063d565b50505050565b6001600160a01b03831661083f5760405162461bcd60e51b815260206004820152602560248201527f45524332303a207472616e736665722066726f6d20746865207a65726f206164604482015264647265737360d81b60648201526084016103b9565b6001600160a01b0382166108a15760405162461bcd60e51b815260206004820152602360248201527f45524332303a207472616e7366657220746f20746865207a65726f206164647260448201526265737360e81b60648201526084016103b9565b6001600160a01b038316600090815260336020526040902054818110156109195760405162461bcd60e51b815260206004820152602660248201527f45524332303a207472616e7366657220616d6f756e7420657863656564732062604482015265616c616e636560d01b60648201526084016103b9565b6001600160a01b03808516600090815260336020526040808220858503905591851681529081208054849290610950908490610eb6565b92505081905550826001600160a01b0316846001600160a01b03167fddf252ad1be2c89b69c2b068fc378daa952ba7f163c4a11628f55a4df523b3ef8460405161099c91815260200190565b60405180910390a36107d5565b6065546001600160a01b031633146104ff5760405162461bcd60e51b815260206004820181905260248201527f4f776e61626c653a2063616c6c6572206973206e6f7420746865206f776e657260448201526064016103b9565b6001600160a01b038216610a595760405162461bcd60e51b815260206004820152601f60248201527f45524332303a206d696e7420746f20746865207a65726f20616464726573730060448201526064016103b9565b8060356000828254610a6b9190610eb6565b90915550506001600160a01b03821660009081526033602052604081208054839290610a98908490610eb6565b90915550506040518181526001600160a01b038316906000907fddf252ad1be2c89b69c2b068fc378daa952ba7f163c4a11628f55a4df523b3ef9060200160405180910390a35050565b600054610100900460ff16610b095760405162461bcd60e51b81526004016103b990610edc565b6103cc8282610b65565b606580546001600160a01b038381166001600160a01b0319831681179093556040519116919082907f8be0079c531659141344cd1fd0a4f28419497f9722a3daafe3b4186f6b6457e090600090a35050565b600054610100900460ff16610b8c5760405162461bcd60e51b81526004016103b990610edc565b8151610b9f906036906020850190610baf565b5080516104e89060379060208401905b828054610bbb90610e7b565b90600052602060002090601f016020900481019282610bdd5760008555610c23565b82601f10610bf657805160ff1916838001178555610c23565b82800160010185558215610c23579182015b82811115610c23578251825591602001919060010190610c08565b50610c2f929150610c33565b5090565b5b80821115610c2f5760008155600101610c34565b600060208083528351808285015260005b81811015610c7557858101830151858201604001528201610c59565b81811115610c87576000604083870101525b50601f01601f1916929092016040019392505050565b80356001600160a01b0381168114610cb457600080fd5b919050565b60008060408385031215610ccc57600080fd5b610cd583610c9d565b946020939093013593505050565b600080600060608486031215610cf857600080fd5b610d0184610c9d565b9250610d0f60208501610c9d565b9150604084013590509250925092565b634e487b7160e01b600052604160045260246000fd5b600082601f830112610d4657600080fd5b813567ffffffffffffffff80821115610d6157610d61610d1f565b604051601f8301601f19908116603f01168101908282118183101715610d8957610d89610d1f565b81604052838152866020858801011115610da257600080fd5b836020870160208301376000602085830101528094505050505092915050565b60008060408385031215610dd557600080fd5b823567ffffffffffffffff80821115610ded57600080fd5b610df986838701610d35565b93506020850135915080821115610e0f57600080fd5b50610e1c85828601610d35565b9150509250929050565b600060208284031215610e3857600080fd5b610e4182610c9d565b9392505050565b60008060408385031215610e5b57600080fd5b610e6483610c9d565b9150610e7260208401610c9d565b90509250929050565b600181811c90821680610e8f57607f821691505b60208210811415610eb057634e487b7160e01b600052602260045260246000fd5b50919050565b60008219821115610ed757634e487b7160e01b600052601160045260246000fd5b500190565b6020808252602b908201527f496e697469616c697a61626c653a20636f6e7472616374206973206e6f74206960408201526a6e697469616c697a696e6760a81b60608201526080019056fea26469706673582212204364ee99b4e377a0ba320b82c6daa8ce669b7ed75447f9f73131487a38d4d86964736f6c634300080c0033",
  "linkReferences": {},
  "deployedLinkReferences": {}
}